:020000040800F2
:1000000000A00020399500082188000823880008F6
:1000100025880008278800082988000800000000BB
:100020000000000000000000000000002B88000815
:100030002D880008000000002F8800088195000826
:100040008195000881950008819500088195000838
:100050008195000881950008819500088195000828
:100060008195000881950008819500088195000818
:100070008195000881950008819500088195000808
:1000800081950008819500088195000881950008F8
:1000900081950008819500088195000881950008E8
:1000A00081950008819500088195000881950008D8
:1000B00081950008819500088195000881950008C8
:1000C00081950008819500088195000881950008B8
:1000D00081950008819500088195000881950008A8
:1000E00031880008819500088195000881950008F5
:1000F0008195000881950008819500088195000888
:1001000000000000000000000000000081950008D1
:100110008195000881950008819500088195000867
:100120008195000881950008819500088195000857
:100130008195000881950008000000000000000083
:100140008195000881950008819500080000000055
:10015000000000000000000000000000000000009F
:100160000000000000000000819500088195000853
:100170008195000800000000000000000000000061
:08018000000000008195000859
:100200000348044B834202D0034B03B118477047A5
:1002100010000020100000200000000005480649E2
:100220000B1AD90F01EBA301491002D0034B03B104
:100230001847704710000020100000200000000048
:1002400010B5064C237843B9FFF7DAFF044B13B11E
:100250000448AFF300800123237010BD100000207C
:10026000000000008495000808B5044B1BB1044948
:100270000448AFF30080BDE80840CFE7000000006D
:100280001400002084950008000000000000000019
:10029000000000000000000000000000000000005E
:1002A000000000000000000000000000000000004E
:1002B000000000000000000000000000000000003E
:1002C000000000000000000000000000000000002E
:1002D000000000000000000000000000000000001E
:1002E000000000000000000000000000000000000E
:1002F00000000000000000000000000000000000FE
:100300003FA1FDE0AFF30080AFF30080AFF30080CA
:10031000AFF30080AFF30080AFF30080AFF3008055
:10032000AFF30080AFF30080AFF30080AFF3008045
:10033000AFF30080AFF30080AFF30080AFF3008035
:1003400000000000000000000000000000000000AD
:10035000000000000000000000000000000000009D
:10036000000000000000000000000000000000008D
:10037000000000000000000000000000000000007D
:10038000000000000000000000000000000000006D
:10039000000000000000000000000000000000005D
:1003A000000000000000000000000000000000004D
:1003B000000000000000000000000000000000003D
:1003C000000000000000000000000000000000002D
:1003D000000000000000000000000000000000001D
:1003E000000000000000000000000000000000000D
:1003F00000000000000000000000000000000000FD
:100400000100000000000000000000008900000062
:10041000000000008B000080000000008080008051
:10042000010000008B0000000100000000800000BF
:100430000100000088800080010000008200008030
:10044000000000000B000000000000000A00000097
:100450000100000082800000000000000380000016
:10046000010000008B800000010000000B000080F4
:10047000010000008A00008001000000810000806F
:1004800000000000810000800000000008000080E3
:1004900000000000830000000000000003800080D6
:1004A00001000000888000800000000088000080BB
:1004B0000100000000800000000000008280008039
:1004C000FF000000AFF30080AFF30080AFF30080C7
:1004D000AFF30080AFF30080AFF30080AFF3008094
:1004E000AFF30080AFF30080AFF30080AFF3008084
:1004F000AFF30080AFF30080AFF30080AFF3008074
:100500002DE9F05FC0F82815036A816C026FD0F8FE
:1005100098C04B40534093EA0C03D0F8C0104B40B6
:10052000C768416BC26DD0F884C04F40574097EA0E
:100530000C07D0F8AC104F4083EAF776C0F8B064EF
:10054000466AC16C426FD0F89CC04E40564096EA55
:100550000C06D0F8C4104E40D0F808E0016B826D54
:10056000D0F880C09EEA010E9EEA020E9EEA0C0EB2
:10057000D0F8A8109EEA010E96EA0E08C0F8B484DE
:100580000569816B026ED0F888C04D40554095EAF0
:100590000C05D0F8B0104D4085EAF679C0F8C89443
:1005A0004469C16B426ED0F88CC04C40544094EA10
:1005B0000C04D0F8B4104C406340C0F8CC3403684D
:1005C000816A026DD0F878C04B40534093EA0C0327
:1005D000D0F8A0104B4083EAF47AC0F8B8A446687B
:1005E000C16A426DD0F87CC04E40564096EA0C0677
:1005F000D0F8A4104E4096EA050BC0F8BCB4C4690C
:10060000416CC26ED0F894C04C40544094EA0C0443
:10061000D0F8BC104C408EEAF475C0F8C05485691F
:10062000016C826ED0F890C04D40554095EA0C05A3
:10063000D0F8B8104D4097EA0502C0F8C42485EA06
:10064000F67CC0F8D0C494EA030EC0F8D4E4D0F825
:10065000B031D0F8D811D0F80022D0F828C24B40E1
:10066000534093EA0C03D0F850124B40D0F89C71E1
:10067000D0F8C411D0F8EC21D0F814C24F40574044
:1006800097EA0C07D0F83C124F4083EAF776C0F89F
:100690000065D0F8B461D0F8DC11D0F80422D0F8AD
:1006A0002CC24E40564096EA0C06D0F854124E40EA
:1006B000D0F898E1D0F8C011D0F8E821D0F810C2F5
:1006C0009EEA010E9EEA020E9EEA0C0ED0F8381247
:1006D0009EEA010E96EA0E08C0F80485D0F8A051F3
:1006E000D0F8C811D0F8F021D0F818C24D405540CC
:1006F00095EA0C05D0F840124D4085EAF679C0F82D
:100700001895D0F8A441D0F8CC11D0F8F421D0F845
:100710001CC24C40544094EA0C04D0F844124C40A3
:100720006340C0F81C35D0F89031D0F8B811D0F83B
:10073000E021D0F808C24B40534093EA0C03D0F8B4
:1007400030124B4083EAF47AC0F808A5D0F89461DF
:10075000D0F8BC11D0F8E421D0F80CC24E4056407D
:1007600096EA0C06D0F834124E4096EA050BC0F813
:100770000CB5D0F8AC41D0F8D411D0F8FC21D0F8A9
:1007800024C24C40544094EA0C04D0F84C124C4023
:100790008EEAF475C0F81055D0F8A851D0F8D011F1
:1007A000D0F8F821D0F820C24D40554095EA0C050C
:1007B000D0F848124D4097EA0502C0F8142585EAA2
:1007C000F67CC0F820C594EA030EC0F824E5D0F802
:1007D000E830D0F81011D0F83821D0F860C14B4083
:1007E000534093EA0C03D0F888114B40D0F8D470F2
:1007F000D0F8FC10D0F82421D0F84CC14F4057401D
:1008000097EA0C07D0F874114F4083EAF776C0F8E6
:10081000D864D0F8EC60D0F81411D0F83C21D0F8AE
:1008200064C14E40564096EA0C06D0F88C114E40FA
:10083000D0F8D0E0D0F8F810D0F82021D0F848C196
:100840009EEA010E9EEA020E9EEA0C0ED0F870118E
:100850009EEA010E96EA0E08C0F8DC84D0F8D85063
:10086000D0F80011D0F82821D0F850C14D405540A3
:1008700095EA0C05D0F878114D4085EAF679C0F874
:10088000F094D0F8DC40D0F80411D0F82C21D0F846
:1008900054C14C40544094EA0C04D0F87C114C40B4
:1008A0006340C0F8F434D0F8C830D0F8F010D0F875
:1008B0001821D0F840C14B40534093EA0C03D0F8C4
:1008C00068114B4083EAF47AC0F8E0A4D0F8CC6019
:1008D000D0F8F410D0F81C21D0F844C14E40564056
:1008E00096EA0C06D0F86C114E4096EA050BC0F85B
:1008F000E4B4D0F8E440D0F80C11D0F83421D0F8AA
:100900005CC14C40544094EA0C04D0F884114C4033
:100910008EEAF475C0F8E854D0F8E050D0F8081129
:10092000D0F83021D0F858C14D40554095EA0C051B
:10093000D0F880114D4097EA0502C0F8EC2485EA12
:10094000F67CC0F8F8C494EA030EC0F8FCE42DE984
:10095000045FD0F81C51D0F84C61D0F87C71D0F80D
:10096000E030D0F8104195EA080596EA0B065740AA
:1009700093EA090394EA0C045FEAB5755FEA762608
:100980005FEA77075FEAB3435FEAB454C0F81C51EB
:10099000C0F84C61C0F87C71C0F8E030C0F810417C
:1009A000D0F8E4A1D0F80415D0F814B2D0F80C2592
:1009B000D0F844C2D0F814E59AEA010A9BEA020B87
:1009C0009CEA0E0CD0F8A881D0F81815D0F8D89170
:1009D000D0F820E598EA010899EA0E095FEABA7AA8
:1009E0005FEA7B2B5FEA7C0C5FEAB8485FEAB959A3
:1009F00006B498EA050104EA0502514004EA0A0235
:100A0000514009EA05025140C0F8AC1299EA0601CA
:100A100005EA0602514005EA0B0251400AEA0602C5
:100A20005140C0F8DC129AEA070106EA0702514079
:100A300006EA0C0251400BEA07025140C0F80C13C1
:100A40009BEA030107EA0302514007EA080251400A
:100A50000CEA03025140C0F870129CEA040103EA58
:100A60000402514003EA0902514008EA04025140DD
:100A7000C0F8A01206BC456DD0F8B414D0F884605C
:100A8000D0F8BC24D0F8B470D0F8C4E44D4056403F
:100A900097EA0E078369D0F8C814846CD0F8D0E4C4
:100AA0004B4094EA0E045FEAB5755FEA76265FEA8A
:100AB00077075FEAB3435FEAB45406B493EA0A01E6
:100AC00009EA0A02514009EA0502514004EA0A0211
:100AD0005140C0F8741394EA0B010AEA0B0251402A
:100AE0000AEA0602514005EA0B025140C0F8A4137D
:100AF00095EA0C010BEA0C0251400BEA0702514047
:100B000006EA0C025140C0F8D41396EA08010CEA38
:100B1000080251400CEA0302514007EA0802514022
:100B2000C0F8381397EA090108EA0902514008EAB7
:100B30000402514003EA09025140C0F8681306BCA0
:100B4000D0F81CA1D0F84CB1D0F87CC1D0F8E0802E
:100B5000D0F8109106B498EA050104EA0502514064
:100B600004EA0A02514009EA05025140C0F83C1467
:100B700099EA060105EA0602514005EA0B025140D6
:100B80000AEA06025140C0F86C149AEA070106EA24
:100B90000702514006EA0C0251400BEA070251409D
:100BA000C0F89C149BEA030107EA0302514007EADC
:100BB000080251400CEA03025140C0F800149CEABC
:100BC000040103EA0402514003EA0902514008EA21
:100BD00004025140C0F8301406BCBDE8045F2DE9A2
:100BE000045FD0F86C71D0F8D030D0F80441D0F860
:100BF0003051D0F8646197EA080793EA0A03544039
:100C000095EA090596EA0E065FEAF7575FEA7474FB
:100C10005FEA35555FEA3676C0F86C71C0F8D030BF
:100C2000C0F80441C0F83051C0F86461D0F834C253
:100C3000D0F80415D0F89881D0F80825D0F8CC91D8
:100C4000D0F814E59CEA010C98EA020899EA0E092A
:100C5000D0F8F8A1D0F81815D0F82CB2D0F824E5C7
:100C60009AEA010A9BEA0E0B5FEAFC5C5FEA79797B
:100C70005FEA3A5A5FEA3B7B06B498EA050104EA68
:100C80000502514004EA0A02514009EA05025140B6
:100C9000C0F8FC1299EA060105EA0602514005EA8D
:100CA0000B0251400AEA06025140C0F860129AEA6B
:100CB000070106EA0702514006EA0C0251400BEA1E
:100CC00007025140C0F894129BEA030107EA0302AD
:100CD000514007EA080251400CEA03025140C0F8B3
:100CE000C0129CEA040103EA0402514003EA09022B
:100CF000514008EA04025140C0F8F41206BCD0F892
:100D0000A470D0F8B4148368D0F8B824C46BD0F8B9
:100D1000C4E44F40534094EA0E04856ED0F8C814E2
:100D2000D0F89C60D0F8D4E44D4096EA0E065FEA15
:100D3000F7575FEA74745FEA35555FEA367606B4B2
:100D400093EA0A0109EA0A02514009EA0502514000
:100D500004EA0A025140C0F8C41394EA0B010AEAFB
:100D60000B0251400AEA0602514005EA0B025140CB
:100D7000C0F8281395EA0C010BEA0C0251400BEA6B
:100D80000702514006EA0C025140C0F85C1396EA93
:100D900008010CEA080251400CEA0302514007EA3C
:100DA00008025140C0F8881397EA090108EA0902CD
:100DB000514008EA0402514003EA09025140C0F8D8
:100DC000BC1306BCD0F86CC1D0F8D080D0F8049128
:100DD000D0F830A1D0F864B106B498EA050104EA6D
:100DE0000502514004EA0A02514009EA0502514055
:100DF000C0F88C1499EA060105EA0602514005EA9A
:100E00000B0251400AEA06025140C0F8F0139AEA78
:100E1000070106EA0702514006EA0C0251400BEABC
:100E200007025140C0F824149BEA030107EA0302B9
:100E3000514007EA080251400CEA03025140C0F851
:100E400050149CEA040103EA0402514003EA090237
:100E5000514008EA04025140C0F8841406BCBDE8C1
:100E6000045FD0F8D8842DE9045FD0F8F040D0F8C2
:100E70002051D0F85461D0F88071D0F8EC3094EA69
:100E8000080495EA0A05564097EA090793EA0E0313
:100E90005FEAB4345FEAF5655FEA36665FEA371702
:100EA0005FEAB343C0F8F040C0F82051C0F8546185
:100EB000C0F88071C0F8EC30D0F8B891D0F80015C7
:100EC000D0F8E8A1D0F80825D0F81CB2D0F814E585
:100ED00099EA01099AEA020A9BEA0E0BD0F848C285
:100EE000D0F81815D0F8B481D0F824E59CEA010CAC
:100EF00098EA0E085FEAB9395FEAFA6A5FEA3B6B83
:100F00005FEA3C1C5FEAB84806B498EA050104EAC7
:100F10000502514004EA0A02514009EA0502514023
:100F2000C0F8801299EA060105EA0602514005EA76
:100F30000B0251400AEA06025140C0F8B0129AEA88
:100F4000070106EA0702514006EA0C0251400BEA8B
:100F500007025140C0F8E4129BEA030107EA0302CA
:100F6000514007EA080251400CEA03025140C0F820
:100F700010139CEA040103EA0402514003EA090247
:100F8000514008EA04025140C0F87C1206BC846A51
:100F9000D0F8B014856DD0F8B824D0F88C60D0F8B3
:100FA000C4E44C40554096EA0E06D0F8B870D0F82C
:100FB000C814436AD0F8D4E44F4093EA0E035FEAC2
:100FC000B4345FEAF5655FEA36665FEA37175FEAD1
:100FD000B34306B493EA0A0109EA0A02514009EA56
:100FE0000502514004EA0A025140C0F8481394EA4D
:100FF0000B010AEA0B0251400AEA0602514005EAD7
:101000000B025140C0F8781395EA0C010BEA0C0270
:1010100051400BEA0702514006EA0C025140C0F869
:10102000AC1396EA08010CEA080251400CEA0302EC
:10103000514007EA08025140C0F8D81397EA090165
:1010400008EA0902514008EA0402514003EA090291
:101050005140C0F8441306BCD0F8F090D0F820A15D
:10106000D0F854B1D0F880C1D0F8EC8006B498EA3A
:10107000050104EA0502514004EA0A02514009EA66
:1010800005025140C0F8101499EA060105EA06026B
:10109000514005EA0B0251400AEA06025140C0F8ED
:1010A00040149AEA070106EA0702514006EA0C02D8
:1010B00051400BEA07025140C0F874149BEA030147
:1010C00007EA0302514007EA080251400CEA030212
:1010D0005140C0F8A0149CEA040103EA0402514004
:1010E00003EA0902514008EA04025140C0F80C1416
:1010F00006BCBDE8045F2DE9045FD0F84061D0F87C
:101100007471D0F8DC30D0F80841D0F8385196EA44
:10111000080697EA0B07534094EA090495EA0C0580
:101120005FEA36365FEAF7775FEA73035FEA7414C3
:101130005FEA7535C0F84061C0F87471C0F8DC3002
:10114000C0F80841C0F83851D0F808B2D0F80015FE
:10115000D0F83CC2D0F80C25D0F8A481D0F814E522
:101160009BEA010B9CEA020C98EA0E08D0F8D09199
:10117000D0F81815D0F800A2D0F820E599EA0109B6
:101180009AEA0E0A5FEA3B3B5FEAFC7C5FEA78087A
:101190005FEA79195FEA7A3A06B498EA050104EA47
:1011A0000502514004EA0A02514009EA0502514091
:1011B000C0F8D01299EA060105EA0602514005EA94
:1011C0000B0251400AEA06025140C0F804139AEAA1
:1011D000070106EA0702514006EA0C0251400BEAF9
:1011E00007025140C0F86C129BEA030107EA0302B0
:1011F000514007EA080251400CEA03025140C0F88E
:1012000098129CEA040103EA0402514003EA09022D
:10121000514008EA04025140C0F8C81206BC866F6B
:10122000D0F8B014D0F8AC70D0F8BC244369D0F832
:10123000C4E44E40574093EA0E03046CD0F8C8143F
:10124000056FD0F8D0E44C4095EA0E055FEA3636DB
:101250005FEAF7775FEA73035FEA74145FEA753554
:1012600006B493EA0A0109EA0A02514009EA0502B2
:10127000514004EA0A025140C0F8981394EA0B0165
:101280000AEA0B0251400AEA0602514005EA0B0243
:101290005140C0F8CC1395EA0C010BEA0C02514006
:1012A0000BEA0702514006EA0C025140C0F8341321
:1012B00096EA08010CEA080251400CEA0302514088
:1012C00007EA08025140C0F8601397EA090108EAEA
:1012D0000902514008EA0402514003EA0902514060
:1012E000C0F8901306BCD0F840B1D0F874C1D0F863
:1012F000DC80D0F80891D0F838A106B498EA05014E
:1013000004EA0502514004EA0A02514009EA0502D2
:101310005140C0F8601499EA060105EA06025140FE
:1013200005EA0B0251400AEA06025140C0F8941443
:101330009AEA070106EA0702514006EA0C02514008
:101340000BEA07025140C0F8FC139BEA030107EACD
:101350000302514007EA080251400CEA03025140DF
:10136000C0F828149CEA040103EA0402514003EA8D
:101370000902514008EA04025140C0F8581406BC62
:10138000BDE8045FD0F8F4942DE9045FD0F8C830CC
:10139000D0F8F840D0F82C51D0F85C61D0F88871C2
:1013A00093EA080394EA0A04554096EA090697EA84
:1013B0000C075FEAB4245FEAB5255FEA76565FEA78
:1013C0007767C0F8C830C0F8F840C0F82C51C0F8B2
:1013D0005C61C0F88871D0F89081D0F80015D0F821
:1013E000C091D0F80825D0F8F4A1D0F814E598EA17
:1013F000010899EA02099AEA0E0AD0F824B2D0F854
:101400001C15D0F850C2D0F820E59BEA010B9CEAED
:101410000E0C5FEAB9295FEABA2A5FEA7B5B5FEAF2
:101420007C6C06B498EA050104EA0502514004EA1E
:101430000A02514009EA05025140C0F8581299EADF
:10144000060105EA0602514005EA0B0251400AEA8C
:1014500006025140C0F888129AEA070106EA07021C
:10146000514006EA0C0251400BEA07025140C0F815
:10147000BC129BEA030107EA0302514007EA080293
:1014800051400CEA03025140C0F8EC129CEA0401FE
:1014900003EA0402514003EA0902514008EA040247
:1014A0005140C0F8181306BC0368D0F8B014046BA0
:1014B000D0F8B824456ED0F8C4E44B40544095EAC7
:1014C0000E05D0F89460D0F8CC14D0F8C070D0F8E5
:1014D000D0E44E4097EA0E075FEAB4245FEAB525F0
:1014E0005FEA76565FEA776706B493EA0A0109EA8B
:1014F0000A02514009EA0502514004EA0A02514039
:10150000C0F8201394EA0B010AEA0B0251400AEAE0
:101510000602514005EA0B025140C0F8501395EA0B
:101520000C010BEA0C0251400BEA0702514006EA9B
:101530000C025140C0F8841396EA08010CEA080234
:1015400051400CEA0302514007EA08025140C0F83A
:10155000B41397EA090108EA0902514008EA0402B3
:10156000514003EA09025140C0F8E01306BCD0F82C
:10157000C880D0F8F890D0F82CA1D0F85CB1D0F8A1
:1015800088C106B498EA050104EA0502514004EA5C
:101590000A02514009EA05025140C0F8E81399EAED
:1015A000060105EA0602514005EA0B0251400AEA2B
:1015B00006025140C0F818149AEA070106EA070229
:1015C000514006EA0C0251400BEA07025140C0F8B4
:1015D0004C149BEA030107EA0302514007EA0802A0
:1015E00051400CEA03025140C0F87C149CEA04010B
:1015F00003EA0402514003EA0902514008EA0402E6
:101600005140C0F8A81406BCD0F82815D0F8E8233B
:101610000C686240C0F8E823BDE8045FD0F8E82415
:101620002DE9045FD0F81851D0F84861D0F87871EE
:10163000D0F8E430D0F8144195EA080596EA0A0695
:10164000574093EA090394EA0E045FEAF5755FEAEE
:10165000B6265FEAB7075FEAB3435FEAB454C0F85F
:101660001851C0F84861C0F87871C0F8E430C0F88B
:101670001441D0F8E0A1D0F80015D0F810B2D0F89D
:101680000825D0F840C2D0F810E59AEA010A9BEA92
:10169000020B9CEA0E0CD0F8AC81D0F81C15D0F8E7
:1016A000DC91D0F824E598EA010899EA0E095FEA8E
:1016B000FA7A5FEABB2B5FEABC0C5FEAB8485FEAE4
:1016C000B95906B498EA050104EA0502514004EA52
:1016D0000A02514009EA05025140C0F8A81299EAED
:1016E000060105EA0602514005EA0B0251400AEAEA
:1016F00006025140C0F8D8129AEA070106EA07022A
:10170000514006EA0C0251400BEA07025140C0F872
:1017100008139BEA030107EA0302514007EA0802A3
:1017200051400CEA03025140C0F874129CEA0401D3
:1017300003EA0402514003EA0902514008EA0402A4
:101740005140C0F8A41206BC056DD0F8B014D0F812
:101750008060D0F8B824D0F8B070D0F8C0E44D4024
:10176000564097EA0E07C369D0F8CC14C46CD0F881
:10177000D4E44B4094EA0E045FEAF5755FEAB626BE
:101780005FEAB7075FEAB3435FEAB45406B493EA8B
:101790000A0109EA0A02514009EA0502514004EA35
:1017A0000A025140C0F8701394EA0B010AEA0B02D6
:1017B00051400AEA0602514005EA0B025140C0F8C6
:1017C000A01395EA0C010BEA0C0251400BEA070248
:1017D000514006EA0C025140C0F8D01396EA0801C5
:1017E0000CEA080251400CEA0302514007EA0802E1
:1017F0005140C0F83C1397EA090108EA0902514038
:1018000008EA0402514003EA09025140C0F86C138F
:1018100006BCD0F818A1D0F848B1D0F878C1D0F8FB
:10182000E480D0F8149106B498EA050104EA0502B0
:10183000514004EA0A02514009EA05025140C0F849
:10184000381499EA060105EA0602514005EA0B023E
:1018500051400AEA06025140C0F868149AEA0701AA
:1018600006EA0702514006EA0C0251400BEA070261
:101870005140C0F898149BEA030107EA0302514063
:1018800007EA080251400CEA03025140C0F8041470
:101890009CEA040103EA0402514003EA09025140B0
:1018A00008EA04025140C0F8341406BCBDE8045FE5
:1018B0002DE9045FD0F86871D0F8D430D0F8004139
:1018C000D0F83451D0F8606197EA080793EA0B0327
:1018D000544095EA090596EA0C065FEAF7575FEA75
:1018E000F3735FEA74745FEAF5455FEA3676C0F831
:1018F0006871C0F8D430C0F80041C0F83451C0F865
:101900006061D0F830C2D0F80015D0F89C81D0F8D2
:101910000C25D0F8C891D0F810E59CEA010C98EAA3
:10192000020899EA0E09D0F8FCA1D0F81C15D0F8ED
:1019300028B2D0F820E59AEA010A9BEA0E0B5FEA8A
:10194000FC5C5FEAF8785FEA79795FEAFA4A5FEA75
:101950003B7B06B498EA050104EA0502514004EA1B
:101960000A02514009EA05025140C0F8F81299EA0A
:10197000060105EA0602514005EA0B0251400AEA57
:1019800006025140C0F864129AEA070106EA07020B
:10199000514006EA0C0251400BEA07025140C0F8E0
:1019A00090129BEA030107EA0302514007EA08028A
:1019B00051400CEA03025140C0F8C4129CEA0401F1
:1019C00003EA0402514003EA0902514008EA040212
:1019D0005140C0F8F01206BCD0F8A070D0F8B01496
:1019E000C368D0F8BC24846BD0F8C0E44F405340A7
:1019F00094EA0E04C56ED0F8CC14D0F89860D0F8F4
:101A0000D0E44D4096EA0E065FEAF7575FEAF373BB
:101A10005FEA74745FEAF5455FEA367606B493EAE6
:101A20000A0109EA0A02514009EA0502514004EAA2
:101A30000A025140C0F8C01394EA0B010AEA0B02F3
:101A400051400AEA0602514005EA0B025140C0F833
:101A50002C1395EA0C010BEA0C0251400BEA070229
:101A6000514006EA0C025140C0F8581396EA0801AA
:101A70000CEA080251400CEA0302514007EA08024E
:101A80005140C0F88C1397EA090108EA0902514055
:101A900008EA0402514003EA09025140C0F8B813B1
:101AA00006BCD0F868C1D0F8D480D0F80091D0F846
:101AB00034A1D0F860B106B498EA050104EA050241
:101AC000514004EA0A02514009EA05025140C0F8B7
:101AD000881499EA060105EA0602514005EA0B025C
:101AE00051400AEA06025140C0F8F4139AEA07018D
:101AF00006EA0702514006EA0C0251400BEA0702CF
:101B00005140C0F820149BEA030107EA0302514048
:101B100007EA080251400CEA03025140C0F854148D
:101B20009CEA040103EA0402514003EA090251401D
:101B300008EA04025140C0F8801406BCBDE8045F06
:101B4000D0F8DC842DE9045FD0F8F440D0F82451BB
:101B5000D0F85061D0F88471D0F8E83094EA0804E5
:101B600095EA0B05564097EA090793EA0C035FEAEA
:101B7000B4345FEAF5655FEA76665FEA37175FEAD5
:101B8000F343C0F8F440C0F82451C0F85061C0F8E5
:101B90008471C0F8E830D0F8BC91D0F80415D0F8C2
:101BA000ECA1D0F80C25D0F818B2D0F810E599EADD
:101BB00001099AEA020A9BEA0E0BD0F84CC2D0F84F
:101BC0001C15D0F8B081D0F820E59CEA010C98EA09
:101BD0000E085FEAB9395FEAFA6A5FEA7B6B5FEA8F
:101BE0003C1C5FEAF84806B498EA050104EA0502DD
:101BF000514004EA0A02514009EA05025140C0F886
:101C0000841299EA060105EA0602514005EA0B0230
:101C100051400AEA06025140C0F8B4129AEA07019C
:101C200006EA0702514006EA0C0251400BEA07029D
:101C30005140C0F8E0129BEA030107EA0302514059
:101C400007EA080251400CEA03025140C0F814139D
:101C50009CEA040103EA0402514003EA09025140EC
:101C600008EA04025140C0F8781206BCC46AD0F8F1
:101C7000B414C56DD0F8BC24D0F88860D0F8C0E4A6
:101C80004C40554096EA0E06D0F8BC70D0F8CC1403
:101C9000036AD0F8D0E44F4093EA0E035FEAB4340D
:101CA0005FEAF5655FEA76665FEA37175FEAF34356
:101CB00006B493EA0A0109EA0A02514009EA050258
:101CC000514004EA0A025140C0F84C1394EA0B0157
:101CD0000AEA0B0251400AEA0602514005EA0B02E9
:101CE0005140C0F87C1395EA0C010BEA0C025140FC
:101CF0000BEA0702514006EA0C025140C0F8A81353
:101D000096EA08010CEA080251400CEA030251402D
:101D100007EA08025140C0F8DC1397EA090108EA13
:101D20000902514008EA0402514003EA0902514005
:101D3000C0F8401306BCD0F8F490D0F824A1D0F835
:101D400050B1D0F884C1D0F8E88006B498EA050113
:101D500004EA0502514004EA0A02514009EA050278
:101D60005140C0F8141499EA060105EA06025140F0
:101D700005EA0B0251400AEA06025140C0F8441439
:101D80009AEA070106EA0702514006EA0C025140AE
:101D90000BEA07025140C0F870149BEA030107EAFE
:101DA0000302514007EA080251400CEA0302514085
:101DB000C0F8A4149CEA040103EA0402514003EAB7
:101DC0000902514008EA04025140C0F8081406BC58
:101DD000BDE8045F2DE9045FD0F84461D0F870716C
:101DE000D0F8D830D0F80C41D0F83C5196EA08062B
:101DF00097EA0A07534094EA090495EA0E055FEA58
:101E0000F6265FEAF7775FEA73035FEA34145FEA66
:101E10003535C0F84461C0F87071C0F8D830C0F8EA
:101E20000C41C0F83C51D0F80CB2D0F80415D0F8F1
:101E300038C2D0F80825D0F8A081D0F810E59BEA88
:101E4000010B9CEA020C98EA0E08D0F8D491D0F865
:101E50001C15D0F804A2D0F824E599EA01099AEA01
:101E60000E0A5FEAFB2B5FEAFC7C5FEA78085FEA18
:101E700039195FEA3A3A06B498EA050104EA05021C
:101E8000514004EA0A02514009EA05025140C0F8F3
:101E9000D41299EA060105EA0602514005EA0B024E
:101EA00051400AEA06025140C0F800139AEA0701BD
:101EB00006EA0702514006EA0C0251400BEA07020B
:101EC0005140C0F868129BEA030107EA030251403F
:101ED00007EA080251400CEA03025140C0F89C1284
:101EE0009CEA040103EA0402514003EA090251405A
:101EF00008EA04025140C0F8CC1206BCC66FD0F804
:101F0000B414D0F8A870D0F8B8240369D0F8C0E4AD
:101F10004E40574093EA0E03446CD0F8CC14456F02
:101F2000D0F8D4E44C4095EA0E055FEAF6265FEA65
:101F3000F7775FEA73035FEA34145FEA353506B476
:101F400093EA0A0109EA0A02514009EA05025140EE
:101F500004EA0A025140C0F89C1394EA0B010AEA11
:101F60000B0251400AEA0602514005EA0B025140B9
:101F7000C0F8C81395EA0C010BEA0C0251400BEAB9
:101F80000702514006EA0C025140C0F8301396EAAD
:101F900008010CEA080251400CEA0302514007EA2A
:101FA00008025140C0F8641397EA090108EA0902DF
:101FB000514008EA0402514003EA09025140C0F8C6
:101FC000941306BCD0F844B1D0F870C1D0F8D880D2
:101FD000D0F80C91D0F83CA106B498EA050104EAC7
:101FE0000502514004EA0A02514009EA0502514043
:101FF000C0F8641499EA060105EA0602514005EAB0
:102000000B0251400AEA06025140C0F890149AEAC5
:10201000070106EA0702514006EA0C0251400BEAAA
:1020200007025140C0F8F8139BEA030107EA0302D4
:10203000514007EA080251400CEA03025140C0F83F
:102040002C149CEA040103EA0402514003EA090249
:10205000514008EA04025140C0F85C1406BCBDE8D7
:10206000045FD0F8F0942DE9045FD0F8CC30D0F8BC
:10207000FC40D0F82851D0F85861D0F88C7193EA20
:10208000080394EA0B04554096EA090697EA0E07FE
:102090005FEAB4245FEAF5255FEAB6565FEA776740
:1020A000C0F8CC30C0F8FC40C0F82851C0F85861E6
:1020B000C0F88C71D0F89481D0F80415D0F8C49190
:1020C000D0F80C25D0F8F0A1D0F810E598EA010876
:1020D00099EA02099AEA0E0AD0F820B2D0F8181547
:1020E000D0F854C2D0F824E59BEA010B9CEA0E0C10
:1020F0005FEAB9295FEAFA2A5FEABB5B5FEA7C6CB8
:1021000006B498EA050104EA0502514004EA0A020D
:10211000514009EA05025140C0F85C1299EA0601F3
:1021200005EA0602514005EA0B0251400AEA06029E
:102130005140C0F88C129AEA070106EA07025140A2
:1021400006EA0C0251400BEA07025140C0F8B812EF
:102150009BEA030107EA0302514007EA08025140E3
:102160000CEA03025140C0F8E8129CEA040103EAB9
:102170000402514003EA0902514008EA04025140B6
:10218000C0F81C1306BC4368D0F8B414446BD0F8F4
:10219000BC24056ED0F8C0E44B40544095EA0E05CF
:1021A000D0F89060D0F8C814D0F8C470D0F8D4E457
:1021B0004E4097EA0E075FEAB4245FEAF5255FEA2E
:1021C000B6565FEA776706B493EA0A0109EA0A029B
:1021D000514009EA0502514004EA0A025140C0F8A0
:1021E000241394EA0B010AEA0B0251400AEA0602A0
:1021F000514005EA0B025140C0F8541395EA0C0116
:102200000BEA0C0251400BEA0702514006EA0C02AD
:102210005140C0F8801396EA08010CEA08025140C8
:102220000CEA0302514007EA08025140C0F8B0131B
:1022300097EA090108EA0902514008EA04025140FC
:1022400003EA09025140C0F8E41306BCD0F8CC8080
:10225000D0F8FC90D0F828A1D0F858B1D0F88CC1B3
:1022600006B498EA050104EA0502514004EA0A02AC
:10227000514009EA05025140C0F8EC1399EA060101
:1022800005EA0602514005EA0B0251400AEA06023D
:102290005140C0F81C149AEA070106EA07025140AF
:1022A00006EA0C0251400BEA07025140C0F84814FC
:1022B0009BEA030107EA0302514007EA0802514082
:1022C0000CEA03025140C0F878149CEA040103EAC6
:1022D0000402514003EA0902514008EA0402514055
:1022E000C0F8AC1406BCD0F82815D0F8EC234C6824
:1022F0006240C0F8EC23BDE8045FD0F81833D0F892
:10230000A012D0F8F022D0F87CC24B40534093EAA0
:102310000C03D0F8CC124B40D0F88C72D0F8D81205
:10232000D0F86022D0F8B4C24F40574097EA0C076B
:10233000D0F804134F4083EAF776C0F8B064D0F8C1
:102340001C63D0F8A412D0F8F422D0F878C24E4022
:10235000564096EA0C06D0F8C8124E40D0F888E2F3
:10236000D0F8DC12D0F86422D0F8B0C29EEA010E98
:102370009EEA020E9EEA0C0ED0F800139EEA010EB1
:1023800096EA0E08C0F8B484D0F8BC52D0F80C130A
:10239000D0F89022D0F8E4C24D40554095EA0C05A3
:1023A000D0F868124D4085EAF679C0F8C894D0F8A4
:1023B000B842D0F80813D0F89422D0F8E0C24C40CC
:1023C000544094EA0C04D0F86C124C406340C0F8BE
:1023D000CC34D0F85832D0F8AC12D0F8F822D0F87B
:1023E00080C24B40534093EA0C03D0F8D4124B40C8
:1023F00083EAF47AC0F8B8A4D0F85C62D0F8A812E6
:10240000D0F8FC22D0F884C24E40564096EA0C0622
:10241000D0F8D0124E4096EA050BC0F8BCB4D0F804
:10242000E842D0F87412D0F8C022D0F814C34C405F
:10243000544094EA0C04D0F898124C408EEAF4759B
:10244000C0F8C054D0F8EC52D0F87012D0F8C422C2
:10245000D0F810C34D40554095EA0C05D0F89C12B9
:102460004D4097EA0502C0F8C42485EAF67CC0F81E
:10247000D0C494EA030EC0F8D4E4D0F8A834D0F85D
:102480003014D0F88024D0F80CC44B40534093EA69
:102490000C03D0F85C144B40D0F81C74D0F86814CE
:1024A000D0F8F023D0F844C44F40574097EA0C07C7
:1024B000D0F894144F4083EAF776C0F80065D0F85E
:1024C000AC64D0F83414D0F88424D0F808C44E405A
:1024D000564096EA0C06D0F858144E40D0F818E44E
:1024E000D0F86C14D0F8F423D0F840C49EEA010E62
:1024F0009EEA020E9EEA0C0ED0F890149EEA010E9F
:1025000096EA0E08C0F80485D0F84C54D0F89C1414
:10251000D0F82024D0F874C44D40554095EA0C05FD
:10252000D0F8F8134D4085EAF679C0F81895D0F840
:102530004844D0F89814D0F82424D0F870C44C4003
:10254000544094EA0C04D0F8FC134C406340C0F8AB
:102550001C35D0F8E833D0F83C14D0F88824D0F8F3
:1025600010C44B40534093EA0C03D0F864144B4022
:1025700083EAF47AC0F808A5D0F8EC63D0F83814F0
:10258000D0F88C24D0F814C44E40564096EA0C067D
:10259000D0F860144E4096EA050BC0F80CB5D0F8A0
:1025A0007844D0F80414D0F85024D0F8A4C44C4097
:1025B000544094EA0C04D0F828144C408EEAF47588
:1025C000C0F81055D0F87C54D0F80014D0F854243A
:1025D000D0F8A0C44D40554095EA0C05D0F82C1415
:1025E0004D4097EA0502C0F8142585EAF67CC0F84C
:1025F00020C594EA030EC0F824E5D0F8E033D0F803
:102600006813D0F8B823D0F844C34B40534093EA42
:102610000C03D0F894134B40D0F85473D0F8A013A7
:10262000D0F82823D0F87CC34F40574097EA0C07D6
:10263000D0F8CC134F4083EAF776C0F8D864D0F8CE
:10264000E463D0F86C13D0F8BC23D0F840C34E40FC
:10265000564096EA0C06D0F890134E40D0F850E35E
:10266000D0F8A413D0F82C23D0F878C39EEA010E3A
:102670009EEA020E9EEA0C0ED0F8C8139EEA010EE6
:1026800096EA0E08C0F8DC84D0F88453D0F8D4134E
:10269000D0F85823D0F8ACC34D40554095EA0C050E
:1026A000D0F830134D4085EAF679C0F8F094D0F8B0
:1026B0008043D0F8D013D0F85C23D0F8A8C34C40A6
:1026C000544094EA0C04D0F834134C406340C0F8F2
:1026D000F434D0F82033D0F87413D0F8C023D0F8F5
:1026E00048C34B40534093EA0C03D0F89C134B4033
:1026F00083EAF47AC0F8E0A4D0F82463D0F8701329
:10270000D0F8C423D0F84CC34E40564096EA0C068D
:10271000D0F898134E4096EA050BC0F8E4B4D0F810
:10272000B043D0F83C13D0F88823D0F8DCC34C4039
:10273000544094EA0C04D0F860134C408EEAF475CF
:10274000C0F8E854D0F8B453D0F83813D0F88C233C
:10275000D0F8D8C34D40554095EA0C05D0F8641325
:102760004D4097EA0502C0F8EC2485EAF67CC0F8F3
:10277000F8C494EA030EC0F8FCE42DE9045FD0F835
:10278000C453D0F87C63D0F83473D0F8B433D0F8A5
:10279000684395EA080596EA0B06574093EA090351
:1027A00094EA0C045FEAB5755FEA76265FEA77077C
:1027B0005FEAB3435FEAB454C0F8C453C0F87C6323
:1027C000C0F83473C0F8B433C0F86843D0F88CA4B0
:1027D000D0F80415D0F844B4D0F80C25D0F8FCC3D8
:1027E000D0F814E59AEA010A9BEA020B9CEA0E0C67
:1027F000D0F87C84D0F81815D0F83094D0F820E5C3
:1028000098EA010899EA0E095FEABA7A5FEA7B2B37
:102810005FEA7C0C5FEAB8485FEAB95906B498EA07
:10282000050104EA0502514004EA0A02514009EA9E
:1028300005025140C0F8A41099EA060105EA060213
:10284000514005EA0B0251400AEA06025140C165B7
:102850009AEA070106EA0702514006EA0C025140D3
:102860000BEA0702514041619BEA030107EA0302B8
:10287000514007EA080251400CEA03025140C0F8F7
:1028800094109CEA040103EA0402514003EA09029D
:10289000514008EA04025140816406BCD0F8FC5261
:1028A000D0F8B414D0F8B462D0F8BC24D0F86C726C
:1028B000D0F8C4E44D40564097EA0E07D0F8EC3209
:1028C000D0F8C814D0F8A042D0F8D0E44B4094EA35
:1028D0000E045FEAB5755FEA76265FEA77075FEA7E
:1028E000B3435FEAB45406B493EA0A0109EA0A0260
:1028F000514009EA0502514004EA0A025140C0F879
:102900006C1194EA0B010AEA0B0251400AEA060232
:10291000514005EA0B025140C0F8241195EA0C0120
:102920000BEA0C0251400BEA0702514006EA0C0286
:102930005140C0F8DC1096EA08010CEA0802514048
:102940000CEA0302514007EA08025140C0F85C114A
:1029500097EA090108EA0902514008EA04025140D5
:1029600003EA09025140C0F8101106BCD0F8C4A314
:10297000D0F87CB3D0F834C3D0F8B483D0F86893DF
:1029800006B498EA050104EA0502514004EA0A0285
:10299000514009EA05025140C0F8341299EA060193
:1029A00005EA0602514005EA0B0251400AEA060216
:1029B0005140C0F8EC119AEA070106EA07025140BB
:1029C00006EA0C0251400BEA07025140C0F8A4117C
:1029D0009BEA030107EA0302514007EA080251405B
:1029E0000CEA03025140C0F824129CEA040103EAF5
:1029F0000402514003EA0902514008EA040251402E
:102A0000C0F8D81106BCBDE8045F2DE9045FD0F81A
:102A10009873D0F85033D0F8D043D0F88C53D0F816
:102A2000406397EA080793EA0A03544095EA0905C8
:102A300096EA0E065FEAF7575FEA74745FEA355567
:102A40005FEA3676C0F89873C0F85033C0F8D043C8
:102A5000C0F88C53C0F84063D0F860C4D0F80415B7
:102A6000D0F81884D0F80825D0F89894D0F814E558
:102A70009CEA010C98EA020899EA0E09D0F854A4DD
:102A8000D0F81815D0F808B4D0F824E59AEA010A6D
:102A90009BEA0E0B5FEAFC5C5FEA79795FEA3A5ADF
:102AA0005FEA3B7B06B498EA050104EA050251405F
:102AB00004EA0A02514009EA05025140816799EA95
:102AC000060105EA0602514005EA0B0251400AEAF6
:102AD0000602514001639AEA070106EA07025140E3
:102AE00006EA0C0251400BEA07025140C0F8B01050
:102AF0009BEA030107EA0302514007EA080251403A
:102B00000CEA03025140C1669CEA040103EA040294
:102B1000514003EA0902514008EA040251400162AF
:102B200006BCD0F8D072D0F8B414D0F88832D0F8FF
:102B3000B824D0F80843D0F8C4E44F40534094EA96
:102B40000E04D0F8C452D0F8C814D0F87862D0F887
:102B5000D4E44D4096EA0E065FEAF7575FEA7474D4
:102B60005FEA35555FEA367606B493EA0A0109EA68
:102B70000A02514009EA0502514004EA0A025140A2
:102B8000C0F8401194EA0B010AEA0B0251400AEA2C
:102B90000602514005EA0B025140C0F8F81095EAD0
:102BA0000C010BEA0C0251400BEA0702514006EA05
:102BB0000C025140C0F8781196EA08010CEA0802AC
:102BC00051400CEA0302514007EA08025140C0F8A4
:102BD000341197EA090108EA0902514008EA04029F
:102BE000514003EA09025140C0F8E81006BCD0F891
:102BF00098C3D0F85083D0F8D093D0F88CA3D0F8F5
:102C000040B306B498EA050104EA0502514004EA1B
:102C10000A02514009EA05025140C0F8081299EA37
:102C2000060105EA0602514005EA0B0251400AEA94
:102C300006025140C0F8C0119AEA070106EA0702ED
:102C4000514006EA0C0251400BEA07025140C0F81D
:102C500040129BEA030107EA0302514007EA080217
:102C600051400CEA03025140C0F8FC119CEA0401F7
:102C700003EA0402514003EA0902514008EA04024F
:102C80005140C0F8B01106BCBDE8045FD0F8D8844C
:102C90002DE9045FD0F87443D0F82C53D0F8A86322
:102CA000D0F86473D0F8E43394EA080495EA0A058E
:102CB000564097EA090793EA0E035FEAB4345FEAE5
:102CC000F5655FEA36665FEA37175FEAB343C0F837
:102CD0007443C0F82C53C0F8A863C0F86473C0F8FC
:102CE000E433D0F83C94D0F80015D0F8F4A3D0F831
:102CF0000825D0F870B4D0F814E599EA01099AEAE9
:102D0000020A9BEA0E0BD0F82CC4D0F81815D0F8A4
:102D1000AC84D0F824E59CEA010C98EA0E085FEA3E
:102D2000B9395FEAFA6A5FEA3B6B5FEA3C1C5FEA2B
:102D3000B84806B498EA050104EA0502514004EADD
:102D40000A02514009EA05025140416599EA06012B
:102D500005EA0602514005EA0B0251400AEA060262
:102D60005140C1609AEA070106EA0702514006EAAB
:102D70000C0251400BEA07025140C0F888109BEA50
:102D8000030107EA0302514007EA080251400CEA36
:102D90000302514041649CEA040103EA04025140E9
:102DA00003EA0902514008EA04025140C0F8C41085
:102DB00006BCD0F8AC42D0F8B014D0F86452D0F8C9
:102DC000B824D0F8E062D0F8C4E44C40554096EA0C
:102DD0000E06D0F89C72D0F8C814D0F81C33D0F886
:102DE000D4E44F4093EA0E035FEAB4345FEAF5653A
:102DF0005FEA36665FEA37175FEAB34306B493EAE1
:102E00000A0109EA0A02514009EA0502514004EAAE
:102E10000A025140C0F81C1194EA0B010AEA0B02A5
:102E200051400AEA0602514005EA0B025140C0F83F
:102E3000D41095EA0C010BEA0C0251400BEA070290
:102E4000514006EA0C025140C0F8501196EA0801C0
:102E50000CEA080251400CEA0302514007EA08025A
:102E60005140C0F80C1197EA090108EA09025140E3
:102E700008EA0402514003EA09025140C0F88C11EB
:102E800006BCD0F87493D0F82CA3D0F8A8B3D0F82F
:102E900064C3D0F8E48306B498EA050104EA0502A5
:102EA000514004EA0A02514009EA05025140C0F8C3
:102EB000E41199EA060105EA0602514005EA0B020F
:102EC00051400AEA06025140C0F89C119AEA0701F3
:102ED00006EA0702514006EA0C0251400BEA0702DB
:102EE0005140C0F818129BEA030107EA030251405F
:102EF00007EA080251400CEA03025140C0F8D4111D
:102F00009CEA040103EA0402514003EA0902514029
:102F100008EA04025140C0F8541206BCBDE8045F40
:102F20002DE9045FD0F84863D0F8CC73D0F8803333
:102F3000D0F83843D0F8B85396EA080697EA0B075A
:102F4000534094EA090495EA0C055FEA36365FEAD5
:102F5000F7775FEA73035FEA74145FEA7535C0F8C8
:102F60004863C0F8CC73C0F88033C0F83843C0F869
:102F7000B853D0F810B4D0F80015D0F894C4D0F8F5
:102F80000C25D0F84884D0F814E59BEA010B9CEAA4
:102F9000020C98EA0E08D0F80094D0F81815D0F872
:102FA00080A4D0F820E599EA01099AEA0E0A5FEABE
:102FB0003B3B5FEAFC7C5FEA78085FEA79195FEAED
:102FC0007A3A06B498EA050104EA0502514004EA97
:102FD0000A02514009EA05025140816299EA06015C
:102FE00005EA0602514005EA0B0251400AEA0602D0
:102FF0005140C0F8AC109AEA070106EA07025140B6
:1030000006EA0C0251400BEA0702514001669BEAB6
:10301000030107EA0302514007EA080251400CEAA3
:103020000302514081619CEA040103EA0402514019
:1030300003EA0902514008EA04025140C0F898101E
:1030400006BCD0F88062D0F8B014D0F80473D0F881
:10305000BC24D0F8B832D0F8C4E44E40574093EACC
:103060000E03D0F87042D0F8C814D0F8F052D0F85F
:10307000D0E44C4095EA0E055FEA36365FEAF77712
:103080005FEA73035FEA74145FEA753506B493EA86
:103090000A0109EA0A02514009EA0502514004EA1C
:1030A0000A025140C0F8F01094EA0B010AEA0B0240
:1030B00051400AEA0602514005EA0B025140C0F8AD
:1030C000741195EA0C010BEA0C0251400BEA07025D
:1030D000514006EA0C025140C0F8281196EA080156
:1030E0000CEA080251400CEA0302514007EA0802C8
:1030F0005140C0F8E01097EA090108EA090251407E
:1031000008EA0402514003EA09025140C0F8601184
:1031100006BCD0F848B3D0F8CCC3D0F88083D0F840
:103120003893D0F8B8A306B498EA050104EA05027A
:10313000514004EA0A02514009EA05025140C0F830
:10314000B81199EA060105EA0602514005EA0B02A8
:1031500051400AEA06025140C0F83C129AEA0701BF
:1031600006EA0702514006EA0C0251400BEA070248
:103170005140C0F8F0119BEA030107EA03025140F5
:1031800007EA080251400CEA03025140C0F8A811B6
:103190009CEA040103EA0402514003EA0902514097
:1031A00008EA04025140C0F8281206BCBDE8045FDA
:1031B000D0F8F4942DE9045FD0F82033D0F8A4437C
:1031C000D0F85C53D0F8DC63D0F8947393EA08032A
:1031D00094EA0A04554096EA090697EA0C075FEA62
:1031E000B4245FEAB5255FEA76565FEA7767C0F8F0
:1031F0002033C0F8A443C0F85C53C0F8DC63C0F8C7
:103200009473D0F8E883D0F80015D0F86C94D0F817
:103210000825D0F824A4D0F814E598EA010899EA22
:1032200002099AEA0E0AD0F8A4B4D0F81C15D0F816
:103230005CC4D0F820E59BEA010B9CEA0E0C5FEA27
:10324000B9295FEABA2A5FEA7B5B5FEA7C6C06B465
:1032500098EA050104EA0502514004EA0A025140D5
:1032600009EA05025140016099EA060105EA0602F1
:10327000514005EA0B0251400AEA06025140C0F8EB
:1032800084109AEA070106EA0702514006EA0C0296
:1032900051400BEA07025140C1639BEA030107EA70
:1032A0000302514007EA080251400CEA0302514070
:1032B000C0F8BC109CEA040103EA0402514003EA8E
:1032C0000902514008EA04025140416706BCD0F8A7
:1032D0005832D0F8B014D0F8DC42D0F8B824D0F886
:1032E0009452D0F8C4E44B40544095EA0E05D0F80F
:1032F0001463D0F8CC14D0F8CC72D0F8D0E44E409F
:1033000097EA0E075FEAB4245FEAB5255FEA7656CE
:103310005FEA776706B493EA0A0109EA0A025140B4
:1033200009EA0502514004EA0A025140C0F8C810F7
:1033300094EA0B010AEA0B0251400AEA06025140E4
:1033400005EA0B025140C0F84C1195EA0C010BEA5A
:103350000C0251400BEA0702514006EA0C025140B0
:10336000C0F8041196EA08010CEA080251400CEA80
:103370000302514007EA08025140C0F8841197EA5D
:10338000090108EA0902514008EA0402514003EA2F
:1033900009025140C0F83C1106BCD0F82083D0F897
:1033A000A493D0F85CA3D0F8DCB3D0F894C306B4EF
:1033B00098EA050104EA0502514004EA0A02514074
:1033C00009EA05025140C0F8901199EA060105EAA0
:1033D0000602514005EA0B0251400AEA060251403A
:1033E000C0F814129AEA070106EA0702514006EAF9
:1033F0000C0251400BEA07025140C0F8CC119BEA85
:10340000030107EA0302514007EA080251400CEAAF
:1034100003025140C0F84C129CEA040103EA040282
:10342000514003EA0902514008EA04025140C0F841
:10343000041206BCD0F82815D0F890218C686240A0
:10344000C0F89021BDE8045FD0F8E8242DE9045FBE
:10345000D0F8C053D0F87863D0F83073D0F8B033D8
:10346000D0F86C4395EA080596EA0A06574093EAB5
:10347000090394EA0E045FEAF5755FEAB6265FEA8F
:10348000B7075FEAB3435FEAB454C0F8C053C0F86B
:103490007863C0F83073C0F8B033C0F86C43D0F82C
:1034A00088A4D0F80015D0F840B4D0F80825D0F89A
:1034B000F8C3D0F810E59AEA010A9BEA020B9CEAED
:1034C0000E0CD0F87884D0F81C15D0F83494D0F8CD
:1034D00024E598EA010899EA0E095FEAFA7A5FEAB8
:1034E000BB2B5FEABC0C5FEAB8485FEAB95906B487
:1034F00098EA050104EA0502514004EA0A02514033
:1035000009EA05025140C0F8A01099EA060105EA4F
:103510000602514005EA0B0251400AEA06025140F8
:1035200081659AEA070106EA0702514006EA0C02A1
:1035300051400BEA0702514001619BEA030107EA8F
:103540000302514007EA080251400CEA03025140CD
:10355000C0F890109CEA040103EA0402514003EA17
:103560000902514008EA04025140C16406BCD0F887
:10357000F852D0F8B014D0F8B062D0F8B824D0F82F
:103580006872D0F8C0E44D40564097EA0E07D0F874
:10359000E832D0F8CC14D0F8A442D0F8D4E44B40B0
:1035A00094EA0E045FEAF5755FEAB6265FEAB707AC
:1035B0005FEAB3435FEAB45406B493EA0A0109EA46
:1035C0000A02514009EA0502514004EA0A02514048
:1035D000C0F8681194EA0B010AEA0B0251400AEAAA
:1035E0000602514005EA0B025140C0F8201195EA4D
:1035F0000C010BEA0C0251400BEA0702514006EAAB
:103600000C025140C0F8D81096EA08010CEA0802F2
:1036100051400CEA0302514007EA08025140C0F849
:10362000581197EA090108EA0902514008EA040220
:10363000514003EA09025140C0F8141106BCD0F809
:10364000C0A3D0F878B3D0F830C3D0F8B083D0F8A6
:103650006C9306B498EA050104EA0502514004EAB5
:103660000A02514009EA05025140C0F8301299EAB5
:10367000060105EA0602514005EA0B0251400AEA3A
:1036800006025140C0F8E8119AEA070106EA07026B
:10369000514006EA0C0251400BEA07025140C0F8C3
:1036A000A0119BEA030107EA0302514007EA08025E
:1036B00051400CEA03025140C0F820129CEA040178
:1036C00003EA0402514003EA0902514008EA0402F5
:1036D0005140C0F8DC1106BCBDE8045F2DE9045F71
:1036E000D0F89C73D0F85433D0F8D443D0F8885332
:1036F000D0F8446397EA080793EA0B03544095EA2D
:10370000090596EA0C065FEAF7575FEAF3735FEA8A
:1037100074745FEAF5455FEA3676C0F89C73C0F8CA
:103720005433C0F8D443C0F88853C0F84463D0F889
:1037300064C4D0F80015D0F81C84D0F80C25D0F85B
:103740009C94D0F810E59CEA010C98EA020899EAEA
:103750000E09D0F850A4D0F81C15D0F80CB4D0F84D
:1037600020E59AEA010A9BEA0E0B5FEAFC5C5FEA3D
:10377000F8785FEA79795FEAFA4A5FEA3B7B06B458
:1037800098EA050104EA0502514004EA0A025140A0
:1037900009EA05025140C16799EA060105EA0602F5
:1037A000514005EA0B0251400AEA060251404163CA
:1037B0009AEA070106EA0702514006EA0C02514064
:1037C0000BEA07025140C0F8B4109BEA030107EA74
:1037D0000302514007EA080251400CEA030251403B
:1037E00081669CEA040103EA0402514003EA0902EB
:1037F000514008EA04025140416206BCD0F8D4723C
:10380000D0F8B014D0F88C32D0F8BC24D0F80C43E7
:10381000D0F8C0E44F40534094EA0E04D0F8C052B0
:10382000D0F8CC14D0F87C62D0F8D0E44D4096EAC1
:103830000E065FEAF7575FEAF3735FEA74745FEAB4
:10384000F5455FEA367606B493EA0A0109EA0A0208
:10385000514009EA0502514004EA0A025140C0F809
:10386000441194EA0B010AEA0B0251400AEA0602EB
:10387000514005EA0B025140C0F8FC1095EA0C01DA
:103880000BEA0C0251400BEA0702514006EA0C0217
:103890005140C0F87C1196EA08010CEA0802514038
:1038A0000CEA0302514007EA08025140C0F8301107
:1038B00097EA090108EA0902514008EA0402514066
:1038C00003EA09025140C0F8EC1006BCD0F89CC3D2
:1038D000D0F85483D0F8D493D0F888A3D0F844B368
:1038E00006B498EA050104EA0502514004EA0A0216
:1038F000514009EA05025140C0F80C1299EA06014C
:1039000005EA0602514005EA0B0251400AEA0602A6
:103910005140C0F8C4119AEA070106EA0702514073
:1039200006EA0C0251400BEA07025140C0F844126B
:103930009BEA030107EA0302514007EA08025140EB
:103940000CEA03025140C0F8F8119CEA040103EAB2
:103950000402514003EA0902514008EA04025140BE
:10396000C0F8B41106BCBDE8045FD0F8DC842DE9D2
:10397000045FD0F87043D0F82853D0F8AC63D0F887
:103980006073D0F8E03394EA080495EA0B055640DA
:1039900097EA090793EA0C035FEAB4345FEAF56536
:1039A0005FEA76665FEA37175FEAF343C0F8704371
:1039B000C0F82853C0F8AC63C0F86073C0F8E033B7
:1039C000D0F83894D0F80415D0F8F0A3D0F80C252E
:1039D000D0F874B4D0F810E599EA01099AEA020A1D
:1039E0009BEA0E0BD0F828C4D0F81C15D0F8A88498
:1039F000D0F820E59CEA010C98EA0E085FEAB93994
:103A00005FEAFA6A5FEA7B6B5FEA3C1C5FEAF848B0
:103A100006B498EA050104EA0502514004EA0A02E4
:103A2000514009EA05025140016599EA060105EA9B
:103A30000602514005EA0B0251400AEA06025140D3
:103A400081609AEA070106EA0702514006EA0C0281
:103A500051400BEA07025140C0F88C109BEA030169
:103A600007EA0302514007EA080251400CEA030248
:103A7000514001649CEA040103EA0402514003EA54
:103A80000902514008EA04025140C0F8C01006BCC7
:103A9000D0F8A842D0F8B414D0F86052D0F8BC24C2
:103AA000D0F8E462D0F8C0E44C40554096EA0E06E7
:103AB000D0F89872D0F8CC14D0F81833D0F8D0E4FD
:103AC0004F4093EA0E035FEAB4345FEAF5655FEABC
:103AD00076665FEA37175FEAF34306B493EA0A01B2
:103AE00009EA0A02514009EA0502514004EA0A02C1
:103AF0005140C0F8181194EA0B010AEA0B02514038
:103B00000AEA0602514005EA0B025140C0F8D01003
:103B100095EA0C010BEA0C0251400BEA07025140F6
:103B200006EA0C025140C0F8541196EA08010CEA6A
:103B3000080251400CEA0302514007EA08025140D2
:103B4000C0F8081197EA090108EA0902514008EA99
:103B50000402514003EA09025140C0F8881106BC32
:103B6000D0F87093D0F828A3D0F8ACB3D0F860C3E5
:103B7000D0F8E08306B498EA050104EA0502514052
:103B800004EA0A02514009EA05025140C0F8E01176
:103B900099EA060105EA0602514005EA0B02514086
:103BA0000AEA06025140C0F898119AEA070106EAAB
:103BB0000702514006EA0C0251400BEA070251404D
:103BC000C0F81C129BEA030107EA0302514007EA0E
:103BD000080251400CEA03025140C0F8D0119CEA9F
:103BE000040103EA0402514003EA0902514008EAD1
:103BF00004025140C0F8501206BCBDE8045F2DE934
:103C0000045FD0F84C63D0F8C873D0F88433D0F890
:103C10003C43D0F8BC5396EA080697EA0A0753409B
:103C200094EA090495EA0E055FEAF6265FEAF7775B
:103C30005FEA73035FEA34145FEA3535C0F84C631A
:103C4000C0F8C873C0F88433C0F83C43C0F8BC5314
:103C5000D0F814B4D0F80415D0F890C4D0F80825E2
:103C6000D0F84C84D0F810E59BEA010B9CEA020CDA
:103C700098EA0E08D0F80494D0F81C15D0F884A463
:103C8000D0F824E599EA01099AEA0E0A5FEAFB2BCB
:103C90005FEAFC7C5FEA78085FEA39195FEA3A3A42
:103CA00006B498EA050104EA0502514004EA0A0252
:103CB000514009EA05025140C16299EA060105EA4C
:103CC0000602514005EA0B0251400AEA0602514041
:103CD000C0F8A8109AEA070106EA0702514006EA6E
:103CE0000C0251400BEA0702514041669BEA030176
:103CF00007EA0302514007EA080251400CEA0302B6
:103D00005140C1619CEA040103EA0402514003EA04
:103D10000902514008EA04025140C0F89C1006BC58
:103D2000D0F88462D0F8B414D0F80073D0F8B82476
:103D3000D0F8BC32D0F8C0E44E40574093EA0E03AE
:103D4000D0F87442D0F8CC14D0F8F452D0F8D4E4BF
:103D50004C4095EA0E055FEAF6265FEAF7775FEAE0
:103D600073035FEA34145FEA353506B493EA0A0157
:103D700009EA0A02514009EA0502514004EA0A022E
:103D80005140C0F8F41094EA0B010AEA0B025140CA
:103D90000AEA0602514005EA0B025140C0F87011D0
:103DA00095EA0C010BEA0C0251400BEA0702514064
:103DB00006EA0C025140C0F82C1196EA08010CEA00
:103DC000080251400CEA0302514007EA0802514040
:103DD000C0F8E41097EA090108EA0902514008EA2C
:103DE0000402514003EA09025140C0F8641106BCC4
:103DF000D0F84CB3D0F8C8C3D0F88483D0F83C9343
:103E0000D0F8BCA306B498EA050104EA05025140C3
:103E100004EA0A02514009EA05025140C0F8BC1107
:103E200099EA060105EA0602514005EA0B025140F3
:103E30000AEA06025140C0F838129AEA070106EA77
:103E40000702514006EA0C0251400BEA07025140BA
:103E5000C0F8F4119BEA030107EA0302514007EAA4
:103E6000080251400CEA03025140C0F8AC119CEA30
:103E7000040103EA0402514003EA0902514008EA3E
:103E800004025140C0F82C1206BCBDE8045FD0F813
:103E9000F0942DE9045FD0F82433D0F8A043D0F893
:103EA0005853D0F8D863D0F8907393EA080394EA93
:103EB0000B04554096EA090697EA0E075FEAB42418
:103EC0005FEAF5255FEAB6565FEA7767C0F8243304
:103ED000C0F8A043C0F85853C0F8D863C0F8907336
:103EE000D0F8EC83D0F80415D0F86894D0F80C25FD
:103EF000D0F820A4D0F810E598EA010899EA020960
:103F00009AEA0E0AD0F8A0B4D0F81815D0F858C420
:103F1000D0F824E59BEA010B9CEA0E0C5FEAB92974
:103F20005FEAFA2A5FEABB5B5FEA7C6C06B498EA58
:103F3000050104EA0502514004EA0A02514009EA77
:103F400005025140416099EA060105EA0602514026
:103F500005EA0B0251400AEA06025140C0F88010FF
:103F60009AEA070106EA0702514006EA0C025140AC
:103F70000BEA0702514081639BEA030107EA03024F
:103F8000514007EA080251400CEA03025140C0F8D0
:103F9000B8109CEA040103EA0402514003EA090252
:103FA000514008EA04025140016706BCD0F85C3277
:103FB000D0F8B414D0F8D842D0F8BC24D0F890523D
:103FC000D0F8C0E44B40544095EA0E05D0F8106399
:103FD000D0F8C814D0F8C872D0F8D4E44E4097EAAC
:103FE0000E075FEAB4245FEAF5255FEAB6565FEA9A
:103FF000776706B493EA0A0109EA0A02514009EA1E
:104000000502514004EA0A025140C0F8CC1094EA7B
:104010000B010AEA0B0251400AEA0602514005EA86
:104020000B025140C0F8481195EA0C010BEA0C0252
:1040300051400BEA0702514006EA0C025140C0F819
:10404000001196EA08010CEA080251400CEA03024A
:10405000514007EA08025140C0F8801197EA09016F
:1040600008EA0902514008EA0402514003EA090241
:104070005140C0F8381106BCD0F82483D0F8A09382
:10408000D0F858A3D0F8D8B3D0F890C306B498EAC3
:10409000050104EA0502514004EA0A02514009EA16
:1040A00005025140C0F8941199EA060105EA06029A
:1040B000514005EA0B0251400AEA06025140C0F89D
:1040C00010129AEA070106EA0702514006EA0C02BA
:1040D00051400BEA07025140C0F8C8119BEA0301A6
:1040E00007EA0302514007EA080251400CEA0302C2
:1040F0005140C0F848129CEA040103EA040251400E
:1041000003EA0902514008EA04025140C0F80012D3
:1041100006BCD0F82815D0F89421CC686240C0F8CD
:104120009421BDE8045F436F816C426AD0F8C4C03B
:104130004B40534093EA0C03D0F89C104B40D0F80E
:104140008070816D026BD0F808C04F40574097EAED
:104150000C07D0F8AC104F4083EAF776C0F8B06493
:10416000066FC16C026AD0F8C0C04E40564096EA55
:104170000C06D0F898104E40D0F884E0C16D426B28
:10418000D0F80CC09EEA010E9EEA020E9EEA0C0ECA
:10419000D0F8A8109EEA010E96EA0E08C0F8B48482
:1041A000C56B4169D0F8B420D0F888C04D40554067
:1041B00095EA0C05416E4D4085EAF679C0F8C89441
:1041C000846B0169D0F8B020D0F88CC04C405440CA
:1041D00094EA0C04016E4C406340C0F8CC34036890
:1041E000D0F8A410C26FD0F854C04B40534093EAAB
:1041F0000C03C16A4B4083EAF47AC0F8B8A446685D
:10420000D0F8A010826FD0F850C04E40564096EAC9
:104210000C06816A4E4096EA050BC0F8BCB4D0F893
:10422000B840D0F89010C26ED0F840C04C40544016
:1042300094EA0C0481694C408EEAF475C0F8C054CD
:10424000D0F8BC50D0F89410826ED0F844C04D40E5
:10425000554095EA0C05C1694D4097EA0502C0F842
:10426000C42485EAF67CC0F8D0C494EA030EC0F8F2
:10427000D4E4D0F80432D0F8D811D0F8B421D0F872
:1042800054C24B40534093EA0C03D0F82C124B40DD
:10429000D0F81072D0F8E811D0F8C021D0F898C149
:1042A0004F40574097EA0C07D0F83C124F4083EA42
:1042B000F776C0F80065D0F80062D0F8DC11D0F8CD
:1042C000B021D0F850C24E40564096EA0C06D0F8C5
:1042D00028124E40D0F814E2D0F8EC11D0F8C421E6
:1042E000D0F89CC19EEA010E9EEA020E9EEA0C0ED8
:1042F000D0F838129EEA010E96EA0E08C0F804853E
:10430000D0F8CC51D0F8A411D0F84422D0F818C27B
:104310004D40554095EA0C05D0F8F4114D4085EA22
:10432000F679C0F81895D0F8C841D0F8A011D0F8A7
:104330004022D0F81CC24C40544094EA0C04D0F8FF
:10434000F0114C406340C0F81C35D0F89031D0F8E3
:104350003412D0F80C22D0F8E4C14B40534093EA19
:104360000C03D0F8BC114B4083EAF47AC0F808A5DE
:10437000D0F89461D0F83012D0F80822D0F8E0C11B
:104380004E40564096EA0C06D0F8B8114E4096EAD8
:10439000050BC0F80CB5D0F84842D0F82012D0F880
:1043A000FC21D0F8D0C14C40544094EA0C04D0F821
:1043B000A8114C408EEAF475C0F81055D0F84C5254
:1043C000D0F82412D0F8F821D0F8D4C14D4055408F
:1043D00095EA0C05D0F8AC114D4097EA0502C0F8FB
:1043E000142585EAF67CC0F820C594EA030EC0F8CF
:1043F00024E5D0F83C31D0F81011D0F8EC20D0F8FA
:104400008CC14B40534093EA0C03D0F864114B40ED
:10441000D0F84871D0F82011D0F8F820D0F8D0C0EA
:104420004F40574097EA0C07D0F874114F4083EA89
:10443000F776C0F8D864D0F83861D0F81411D0F805
:10444000E820D0F888C14E40564096EA0C06D0F8D5
:1044500060114E40D0F84CE1D0F82411D0F8FC2087
:10446000D0F8D4C09EEA010E9EEA020E9EEA0C0E1F
:10447000D0F870119EEA010E96EA0E08C0F8DC84AE
:10448000D0F80451D0F8DC10D0F87C21D0F850C11D
:104490004D40554095EA0C05D0F82C114D4085EA69
:1044A000F679C0F8F094D0F80041D0F8D810D0F8E0
:1044B0007821D0F854C14C40544094EA0C04D0F810
:1044C00028114C406340C0F8F434D0F8C830D0F81C
:1044D0006C11D0F84421D0F81CC14B40534093EAF2
:1044E0000C03D0F8F4104B4083EAF47AC0F8E0A44F
:1044F000D0F8CC60D0F86811D0F84021D0F818C1BD
:104500004E40564096EA0C06D0F8F0104E4096EA1F
:10451000050BC0F8E4B4D0F88041D0F85811D0F8B9
:104520003421D0F808C14C40544094EA0C04D0F82F
:10453000E0104C408EEAF475C0F8E854D0F884518D
:10454000D0F85C11D0F83021D0F80CC14D40554066
:1045500095EA0C05D0F8E4104D4097EA0502C0F842
:10456000EC2485EAF67CC0F8F8C494EA030EC0F89F
:10457000FCE42DE9045FD0F84051D0F8D060D0F8C9
:104580002871D0F88431D0F8104195EA080596EAF0
:104590000B06574093EA090394EA0C045FEAB575E9
:1045A0005FEA76265FEA77075FEAB3435FEAB454CF
:1045B000C0F84051C0F8D060C0F82871C0F884310C
:1045C000C0F81041D0F808A2D0F80415D0F898B17E
:1045D000D0F80C25D0F8F0C1D0F814E59AEA010A19
:1045E0009BEA020B9CEA0E0CD0F84C82D0F818150E
:1045F000D0F8D891D0F820E598EA010899EA0E0998
:104600005FEABA7A5FEA7B2B5FEA7C0C5FEAB84824
:104610005FEAB95906B498EA050104EA0502514077
:1046200004EA0A02514009EA05025140C0F8D012DA
:1046300099EA060105EA0602514005EA0B025140DB
:104640000AEA06025140C0F860129AEA070106EA37
:104650000702514006EA0C0251400BEA07025140A2
:10466000C0F8B8129BEA030107EA0302514007EAC7
:10467000080251400CEA03025140C0F814139CEAAE
:10468000040103EA0402514003EA0902514008EA26
:1046900004025140C0F8A01206BC856FD0F8B414D3
:1046A0008668D0F8BC24076ED0F8C4E44D4056406C
:1046B00097EA0E07D0F8BC30D0F8C814846CD0F854
:1046C000D0E44B4094EA0E045FEAB5755FEA7626C3
:1046D0005FEA77075FEAB3435FEAB45406B493EA4C
:1046E0000A0109EA0A02514009EA0502514004EAB6
:1046F0000A025140C0F8981394EA0B010AEA0B022F
:1047000051400AEA0602514005EA0B025140C0F846
:10471000281395EA0C010BEA0C0251400BEA070240
:10472000514006EA0C025140C0F8801396EA080195
:104730000CEA080251400CEA0302514007EA080261
:104740005140C0F8DC1397EA090108EA0902514018
:1047500008EA0402514003EA09025140C0F8681314
:1047600006BCD0F840A1D0F8D0B0D0F828C1D0F81D
:104770008481D0F8109106B498EA050104EA050294
:10478000514004EA0A02514009EA05025140C0F8CA
:10479000601499EA060105EA0602514005EA0B0297
:1047A00051400AEA06025140C0F8F0139AEA0701A4
:1047B00006EA0702514006EA0C0251400BEA0702E2
:1047C0005140C0F848149BEA030107EA0302514034
:1047D00007EA080251400CEA03025140C0F8A41451
:1047E0009CEA040103EA0402514003EA0902514031
:1047F00008EA04025140C0F8301406BCBDE8045F6A
:104800002DE9045FD0F8F070D0F84C31D0F8D840E2
:10481000D0F83051D0F8886197EA080793EA0A0384
:10482000544095EA090596EA0E065FEAF7575FEAF3
:1048300074745FEA35555FEA3676C0F8F070C0F8F8
:104840004C31C0F8D840C0F83051C0F88861D0F879
:10485000B8C1D0F80415D0F81482D0F80825D0F8E3
:10486000A091D0F814E59CEA010C98EA020899EAB4
:104870000E09D0F8F8A1D0F81815D0F850B2D0F839
:1048800024E59AEA010A9BEA0E0B5FEAFC5C5FEA08
:1048900079795FEA3A5A5FEA3B7B06B498EA050108
:1048A00004EA0502514004EA0A02514009EA0502FD
:1048B0005140C0F8801299EA060105EA060251400B
:1048C00005EA0B0251400AEA06025140C0F8DC1228
:1048D0009AEA070106EA0702514006EA0C02514033
:1048E0000BEA07025140C0F868129BEA030107EA8D
:1048F0000302514007EA080251400CEA030251400A
:10490000C0F8C0129CEA040103EA0402514003EA21
:104910000902514008EA04025140C0F8181306BCCD
:10492000876AD0F8B414D0F88430D0F8B824046979
:10493000D0F8C4E44F40534094EA0E04856ED0F89A
:10494000C814D0F8C060D0F8D4E44D4096EA0E0602
:104950005FEAF7575FEA74745FEA35555FEA3676C7
:1049600006B493EA0A0109EA0A02514009EA05027B
:10497000514004EA0A025140C0F8481394EA0B017E
:104980000AEA0B0251400AEA0602514005EA0B020C
:104990005140C0F8A41395EA0C010BEA0C025140F7
:1049A0000BEA0702514006EA0C025140C0F83013EE
:1049B00096EA08010CEA080251400CEA0302514051
:1049C00007EA08025140C0F8881397EA090108EA8B
:1049D0000902514008EA0402514003EA0902514029
:1049E000C0F8E01306BCD0F8F0C0D0F84C81D0F885
:1049F000D890D0F830A1D0F888B106B498EA050173
:104A000004EA0502514004EA0A02514009EA05029B
:104A10005140C0F8101499EA060105EA0602514017
:104A200005EA0B0251400AEA06025140C0F86C1434
:104A30009AEA070106EA0702514006EA0C025140D1
:104A40000BEA07025140C0F8F8139BEA030107EA9A
:104A50000302514007EA080251400CEA03025140A8
:104A6000C0F850149CEA040103EA0402514003EA2E
:104A70000902514008EA04025140C0F8A81406BCDB
:104A8000BDE8045FD0F8D8842DE9045FD0F86C410C
:104A9000D0F8FC50D0F85461D0F8E470D0F8383138
:104AA00094EA080495EA0A05564097EA090793EA4A
:104AB0000E035FEAB4345FEAF5655FEA36665FEAE3
:104AC00037175FEAB343C0F86C41C0F8FC50C0F838
:104AD0005461C0F8E470C0F83831D0F83492D0F89E
:104AE0000015D0F8C4A1D0F80825D0F81CB2D0F831
:104AF00014E599EA01099AEA020A9BEA0E0BD0F83A
:104B0000ACC1D0F81815D0F80082D0F824E59CEAA2
:104B1000010C98EA0E085FEAB9395FEAFA6A5FEABF
:104B20003B6B5FEA3C1C5FEAB84806B498EA0501B3
:104B300004EA0502514004EA0A02514009EA05026A
:104B40005140C0F8FC1299EA060105EA06025140FC
:104B500005EA0B0251400AEA06025140C0F88C12E5
:104B60009AEA070106EA0702514006EA0C025140A0
:104B70000BEA07025140C0F8E4129BEA030107EA7E
:104B80000302514007EA080251400CEA0302514077
:104B9000C0F874129CEA040103EA0402514003EADB
:104BA0000902514008EA04025140C0F8C81206BC8C
:104BB000D0F8A440D0F8B014456BD0F8B824D0F8A1
:104BC0008C60D0F8C4E44C40554096EA0E06C769A4
:104BD000D0F8C814036FD0F8D4E44F4093EA0E0322
:104BE0005FEAB4345FEAF5655FEA36665FEA371775
:104BF0005FEAB34306B493EA0A0109EA0A025140A4
:104C000009EA0502514004EA0A025140C0F8C413FF
:104C100094EA0B010AEA0B0251400AEA06025140EB
:104C200005EA0B025140C0F8541395EA0C010BEA57
:104C30000C0251400BEA0702514006EA0C025140B7
:104C4000C0F8AC1396EA08010CEA080251400CEADD
:104C50000302514007EA08025140C0F83C1397EAAA
:104C6000090108EA0902514008EA0402514003EA36
:104C700009025140C0F8901306BCD0F86C91D0F8EE
:104C8000FCA0D0F854B1D0F8E4C0D0F8388106B414
:104C900098EA050104EA0502514004EA0A0251407B
:104CA00009EA05025140C0F88C1499EA060105EAA8
:104CB0000602514005EA0B0251400AEA0602514041
:104CC000C0F81C149AEA070106EA0702514006EAF6
:104CD0000C0251400BEA07025140C0F874149BEAE1
:104CE000030107EA0302514007EA080251400CEAB7
:104CF00003025140C0F804149CEA040103EA0402D0
:104D0000514003EA0902514008EA04025140C0F848
:104D1000581406BCBDE8045F2DE9045FD0F81C619F
:104D2000D0F87471D0F80031D0F85C41D0F8EC5074
:104D300096EA080697EA0B07534094EA090495EAB5
:104D40000C055FEA36365FEAF7775FEA73035FEADE
:104D500074145FEA7535C0F81C61C0F87471C0F84E
:104D60000031C0F85C41C0F8EC50D0F8E4B1D0F8A4
:104D70000015D0F83CC2D0F80C25D0F8C881D0F886
:104D800014E59BEA010B9CEA020C98EA0E08D0F8A5
:104D90002492D0F81815D0F8B4A1D0F820E599EAFB
:104DA00001099AEA0E0A5FEA3B3B5FEAFC7C5FEA94
:104DB00078085FEA79195FEA7A3A06B498EA050159
:104DC00004EA0502514004EA0A02514009EA0502D8
:104DD0005140C0F8AC1299EA060105EA06025140BA
:104DE00005EA0B0251400AEA06025140C0F80413DA
:104DF0009AEA070106EA0702514006EA0C0251400E
:104E00000BEA07025140C0F890129BEA030107EA3F
:104E10000302514007EA080251400CEA03025140E4
:104E2000C0F8EC129CEA040103EA0402514003EAD0
:104E30000902514008EA04025140C0F87C1206BC45
:104E4000466DD0F8B014D0F8AC70D0F8BC24836BA9
:104E5000D0F8C4E44E40574093EA0E03D0F8944093
:104E6000D0F8C814456AD0F8D0E44C4095EA0E0555
:104E70005FEA36365FEAF7775FEA73035FEA741436
:104E80005FEA753506B493EA0A0109EA0A0251405D
:104E900009EA0502514004EA0A025140C0F87413BD
:104EA00094EA0B010AEA0B0251400AEA0602514059
:104EB00005EA0B025140C0F8CC1395EA0C010BEA4D
:104EC0000C0251400BEA0702514006EA0C02514025
:104ED000C0F8581396EA08010CEA080251400CEA9F
:104EE0000302514007EA08025140C0F8B41397EAA0
:104EF000090108EA0902514008EA0402514003EAA4
:104F000009025140C0F8441306BCD0F81CB1D0F8D7
:104F100074C1D0F80081D0F85C91D0F8ECA006B450
:104F200098EA050104EA0502514004EA0A025140E8
:104F300009EA05025140C0F83C1499EA060105EA65
:104F40000602514005EA0B0251400AEA06025140AE
:104F5000C0F894149AEA070106EA0702514006EAEB
:104F60000C0251400BEA07025140C0F820149BEAA2
:104F7000030107EA0302514007EA080251400CEA24
:104F800003025140C0F87C149CEA040103EA0402C5
:104F9000514003EA0902514008EA04025140C0F8B6
:104FA0000C1406BCBDE8045FD0F8F4942DE9045F4E
:104FB000D0F8C830D0F82441D0F87851D0F8086142
:104FC000D0F8647193EA080394EA0A04554096EA1B
:104FD000090697EA0C075FEAB4245FEAB5255FEAA1
:104FE00076565FEA7767C0F8C830C0F82441C0F849
:104FF0007851C0F80861C0F86471D0F89081D0F899
:105000000015D0F8EC91D0F80825D0F840A2D0F8DF
:1050100014E598EA010899EA02099AEA0E0AD0F81A
:10502000D0B1D0F81C15D0F82CC2D0F820E59BEAFE
:10503000010B9CEA0E0C5FEAB9295FEABA2A5FEA23
:105040007B5B5FEA7C6C06B498EA050104EA050222
:10505000514004EA0A02514009EA05025140C0F8F1
:10506000581299EA060105EA0602514005EA0B02C8
:1050700051400AEA06025140C0F8B4129AEA070108
:1050800006EA0702514006EA0C0251400BEA070209
:105090005140C0F808139BEA030107EA030251409C
:1050A00007EA080251400CEA03025140C0F8981286
:1050B0009CEA040103EA0402514003EA0902514058
:1050C00008EA04025140C0F8F41206BC0368D0F8A4
:1050D000B014C46DD0F8B824D0F8B050D0F8C4E4FF
:1050E0004B40544095EA0E05066CD0F8CC14D0F82D
:1050F0009C70D0F8D0E44E4097EA0E075FEAB424E3
:105100005FEAB5255FEA76565FEA776706B493EA09
:105110000A0109EA0A02514009EA0502514004EA7B
:105120000A025140C0F8201394EA0B010AEA0B026C
:1051300051400AEA0602514005EA0B025140C0F80C
:105140007C1395EA0C010BEA0C0251400BEA0702B2
:10515000514006EA0C025140C0F8D01396EA08010B
:105160000CEA080251400CEA0302514007EA080227
:105170005140C0F8601397EA090108EA090251405A
:1051800008EA0402514003EA09025140C0F8BC1386
:1051900006BCD0F8C880D0F82491D0F878A1D0F817
:1051A00008B1D0F864C106B498EA050104EA050222
:1051B000514004EA0A02514009EA05025140C0F890
:1051C000E81399EA060105EA0602514005EA0B02D6
:1051D00051400AEA06025140C0F844149AEA070115
:1051E00006EA0702514006EA0C0251400BEA0702A8
:1051F0005140C0F898149BEA030107EA03025140AA
:1052000007EA080251400CEA03025140C0F8281492
:105210009CEA040103EA0402514003EA09025140F6
:1052200008EA04025140C0F8841406BCD0F82815DE
:10523000D0F8E8230C696240C0F8E823BDE8045FB9
:10524000D0F8E8242DE9045FD0F84451D0F8D460B8
:10525000D0F82C71D0F88031D0F8144195EA0805C7
:1052600096EA0A06574093EA090394EA0E045FEAB5
:10527000F5755FEAB6265FEAB7075FEAB3435FEA10
:10528000B454C0F84451C0F8D460C0F82C71C0F8D0
:105290008031C0F81441D0F80CA2D0F80015D0F835
:1052A0009CB1D0F80825D0F8F4C1D0F810E59AEAFE
:1052B000010A9BEA020B9CEA0E0CD0F84882D0F857
:1052C0001C15D0F8DC91D0F824E598EA010899EA99
:1052D0000E095FEAFA7A5FEABB2B5FEABC0C5FEA71
:1052E000B8485FEAB95906B498EA050104EA05022C
:1052F000514004EA0A02514009EA05025140C0F84F
:10530000D41299EA060105EA0602514005EA0B02A9
:1053100051400AEA06025140C0F864129AEA0701B5
:1053200006EA0702514006EA0C0251400BEA070266
:105330005140C0F8BC129BEA030107EA0302514046
:1053400007EA080251400CEA03025140C0F810136A
:105350009CEA040103EA0402514003EA09025140B5
:1053600008EA04025140C0F8A41206BCC56FD0F888
:10537000B014C668D0F8B824476ED0F8C0E44D40E9
:10538000564097EA0E07D0F8B830D0F8CC14C46C69
:10539000D0F8D4E44B4094EA0E045FEAF5755FEA76
:1053A000B6265FEAB7075FEAB3435FEAB45406B4D0
:1053B00093EA0A0109EA0A02514009EA050251404A
:1053C00004EA0A025140C0F89C1394EA0B010AEA6D
:1053D0000B0251400AEA0602514005EA0B02514015
:1053E000C0F82C1395EA0C010BEA0C0251400BEAB1
:1053F0000702514006EA0C025140C0F8841396EAB5
:1054000008010CEA080251400CEA0302514007EA85
:1054100008025140C0F8D81397EA090108EA0902C6
:10542000514008EA0402514003EA09025140C0F821
:105430006C1306BCD0F844A1D0F8D4B0D0F82CC17D
:10544000D0F88081D0F8149106B498EA050104EAF6
:105450000502514004EA0A02514009EA050251409E
:10546000C0F8641499EA060105EA0602514005EA0B
:105470000B0251400AEA06025140C0F8F4139AEABE
:10548000070106EA0702514006EA0C0251400BEA06
:1054900007025140C0F84C149BEA030107EA0302DB
:1054A000514007EA080251400CEA03025140C0F89B
:1054B000A0149CEA040103EA0402514003EA090231
:1054C000514008EA04025140C0F8341406BCBDE85B
:1054D000045F2DE9045FD0F8F470D0F84831D0F8BB
:1054E000DC40D0F83451D0F88C6197EA080793EA91
:1054F0000B03544095EA090596EA0C065FEAF75754
:105500005FEAF3735FEA74745FEAF5455FEA367643
:10551000C0F8F470C0F84831C0F8DC40C0F834512D
:10552000C0F88C61D0F8BCC1D0F80015D0F810825A
:10553000D0F80C25D0F8A491D0F810E59CEA010C25
:1055400098EA020899EA0E09D0F8FCA1D0F81C15D7
:10555000D0F854B2D0F820E59AEA010A9BEA0E0B83
:105560005FEAFC5C5FEAF8785FEA79795FEAFA4A19
:105570005FEA3B7B06B498EA050104EA0502514064
:1055800004EA0A02514009EA05025140C0F88412B7
:1055900099EA060105EA0602514005EA0B0251406C
:1055A0000AEA06025140C0F8D8129AEA070106EA50
:1055B0000702514006EA0C0251400BEA0702514033
:1055C000C0F86C129BEA030107EA0302514007EAA4
:1055D000080251400CEA03025140C0F8C4129CEA90
:1055E000040103EA0402514003EA0902514008EAB7
:1055F00004025140C0F81C1306BCC76AD0F8B014AE
:10560000D0F88030D0F8BC244469D0F8C0E44F40D2
:10561000534094EA0E04C56ED0F8CC14D0F8C460A0
:10562000D0F8D0E44D4096EA0E065FEAF7575FEAFD
:10563000F3735FEA74745FEAF5455FEA367606B4A1
:1056400093EA0A0109EA0A02514009EA05025140B7
:1056500004EA0A025140C0F84C1394EA0B010AEA2A
:105660000B0251400AEA0602514005EA0B02514082
:10567000C0F8A01395EA0C010BEA0C0251400BEAAA
:105680000702514006EA0C025140C0F8341396EA72
:1056900008010CEA080251400CEA0302514007EAF3
:1056A00008025140C0F88C1397EA090108EA090280
:1056B000514008EA0402514003EA09025140C0F88F
:1056C000E41306BCD0F8F4C0D0F84881D0F8DC90E0
:1056D000D0F834A1D0F88CB106B498EA050104EAF8
:1056E0000502514004EA0A02514009EA050251400C
:1056F000C0F8141499EA060105EA0602514005EAC9
:105700000B0251400AEA06025140C0F868149AEAB6
:10571000070106EA0702514006EA0C0251400BEA73
:1057200007025140C0F8FC139BEA030107EA030299
:10573000514007EA080251400CEA03025140C0F808
:1057400054149CEA040103EA0402514003EA0902EA
:10575000514008EA04025140C0F8AC1406BCBDE850
:10576000045FD0F8DC842DE9045FD0F86841D0F8FC
:10577000F850D0F85061D0F8E070D0F83C3194EA9D
:10578000080495EA0B05564097EA090793EA0C03CB
:105790005FEAB4345FEAF5655FEA76665FEA371779
:1057A0005FEAF343C0F86841C0F8F850C0F85061B0
:1057B000C0F8E070C0F83C31D0F83092D0F8041551
:1057C000D0F8C0A1D0F80C25D0F818B2D0F810E568
:1057D00099EA01099AEA020A9BEA0E0BD0F8A8C1DD
:1057E000D0F81C15D0F80482D0F820E59CEA010C12
:1057F00098EA0E085FEAB9395FEAFA6A5FEA7B6BFA
:105800005FEA3C1C5FEAF84806B498EA050104EA3E
:105810000502514004EA0A02514009EA05025140DA
:10582000C0F8F81299EA060105EA0602514005EAB5
:105830000B0251400AEA06025140C0F888129AEA67
:10584000070106EA0702514006EA0C0251400BEA42
:1058500007025140C0F8E0129BEA030107EA030285
:10586000514007EA080251400CEA03025140C0F8D7
:1058700070129CEA040103EA0402514003EA09029F
:10588000514008EA04025140C0F8CC1206BCD0F8DE
:10589000A040D0F8B414056BD0F8BC24D0F88860D0
:1058A000D0F8C0E44C40554096EA0E068769D0F81F
:1058B000CC14436FD0F8D0E44F4093EA0E035FEA74
:1058C000B4345FEAF5655FEA76665FEA37175FEA48
:1058D000F34306B493EA0A0109EA0A02514009EACD
:1058E0000502514004EA0A025140C0F8C01394EA8C
:1058F0000B010AEA0B0251400AEA0602514005EA8E
:105900000B025140C0F8501395EA0C010BEA0C024F
:1059100051400BEA0702514006EA0C025140C0F820
:10592000A81396EA08010CEA080251400CEA0302A7
:10593000514007EA08025140C0F8381397EA0901BC
:1059400008EA0902514008EA0402514003EA090248
:105950005140C0F8941306BCD0F86891D0F8F8A074
:10596000D0F850B1D0F8E0C0D0F83C8106B498EA45
:10597000050104EA0502514004EA0A02514009EA1D
:1059800005025140C0F8881499EA060105EA0602AA
:10599000514005EA0B0251400AEA06025140C0F8A4
:1059A00018149AEA070106EA0702514006EA0C02B7
:1059B00051400BEA07025140C0F870149BEA030102
:1059C00007EA0302514007EA080251400CEA0302C9
:1059D0005140C0F800149CEA040103EA040251405B
:1059E00003EA0902514008EA04025140C0F85C147D
:1059F00006BCBDE8045F2DE9045FD0F81861D0F85B
:105A00007071D0F80431D0F85841D0F8E85096EAD7
:105A1000080697EA0A07534094EA090495EA0E0536
:105A20005FEAF6265FEAF7775FEA73035FEA34140A
:105A30005FEA3535C0F81861C0F87071C0F80431FC
:105A4000C0F85841C0F8E850D0F8E0B1D0F80415DB
:105A5000D0F838C2D0F80825D0F8CC81D0F810E5BD
:105A60009BEA010B9CEA020C98EA0E08D0F82092FF
:105A7000D0F81C15D0F8B0A1D0F824E599EA0109B6
:105A80009AEA0E0A5FEAFB2B5FEAFC7C5FEA780881
:105A90005FEA39195FEA3A3A06B498EA050104EA7E
:105AA0000502514004EA0A02514009EA0502514048
:105AB000C0F8A81299EA060105EA0602514005EA73
:105AC0000B0251400AEA06025140C0F800139AEA5C
:105AD000070106EA0702514006EA0C0251400BEAB0
:105AE00007025140C0F894129BEA030107EA03023F
:105AF000514007EA080251400CEA03025140C0F845
:105B0000E8129CEA040103EA0402514003EA090294
:105B1000514008EA04025140C0F8781206BC066DF4
:105B2000D0F8B414D0F8A870D0F8B824C36BD0F86B
:105B3000C0E44E40574093EA0E03D0F89040D0F8AE
:105B4000CC14056AD0F8D4E44C4095EA0E055FEA1F
