:020000040800F2
:1000000000A000203D2D0008252000082720000822
:10001000292000082B2000082D20000800000000E7
:100020000000000000000000000000002F20000879
:10003000312000080000000033200008852D000852
:10004000852D0008852D0008852D0008852D0008C8
:10005000852D0008852D0008852D0008852D0008B8
:10006000852D0008852D0008852D0008852D0008A8
:10007000852D0008852D0008852D0008852D000898
:10008000852D0008852D0008852D0008852D000888
:10009000852D0008852D0008852D0008852D000878
:1000A000852D0008852D0008852D0008852D000868
:1000B000852D0008852D0008852D0008852D000858
:1000C000852D0008852D0008852D0008852D000848
:1000D000852D0008852D0008852D0008852D000838
:1000E00035200008852D0008852D0008852D000885
:1000F000852D0008852D0008852D0008852D000818
:10010000000000000000000000000000852D000835
:10011000852D0008852D0008852D0008852D0008F7
:10012000852D0008852D0008852D0008852D0008E7
:10013000852D0008852D000800000000000000004B
:10014000852D0008852D0008852D00080000000081
:10015000000000000000000000000000000000009F
:100160000000000000000000852D0008852D00081B
:10017000852D0008000000000000000000000000C5
:0801800000000000852D0008BD
:100200000348044B834202D0034B03B118477047A5
:1002100010000020100000200000000005480649E2
:100220000B1AD90F01EBA301491002D0034B03B104
:100230001847704710000020100000200000000048
:1002400010B5064C237843B9FFF7DAFF044B13B11E
:100250000448AFF300800123237010BD100000207C
:1002600000000000882D000808B5044B1BB10449AC
:100270000448AFF30080BDE80840CFE7000000006D
:1002800014000020882D000800000000000000007D
:10029000000000000000000000000000000000005E
:1002A000000000000000000000000000000000004E
:1002B000000000000000000000000000000000003E
:1002C000000000000000000000000000000000002E
:1002D000000000000000000000000000000000001E
:1002E000000000000000000000000000000000000E
:1002F00000000000000000000000000000000000FE
:100300003FA1FDE0AFF30080AFF30080AFF30080CA
:10031000AFF30080AFF30080AFF30080AFF3008055
:10032000AFF30080AFF30080AFF30080AFF3008045
:10033000AFF30080AFF30080AFF30080AFF3008035
:1003400000000000000000000000000000000000AD
:10035000000000000000000000000000000000009D
:10036000000000000000000000000000000000008D
:10037000000000000000000000000000000000007D
:10038000000000000000000000000000000000006D
:10039000000000000000000000000000000000005D
:1003A000000000000000000000000000000000004D
:1003B000000000000000000000000000000000003D
:1003C000000000000000000000000000000000002D
:1003D000000000000000000000000000000000001D
:1003E000000000000000000000000000000000000D
:1003F00000000000000000000000000000000000FD
:100400000100000000000000000000008900000062
:10041000000000008B000080000000008080008051
:10042000010000008B0000000100000000800000BF
:100430000100000088800080010000008200008030
:10044000000000000B000000000000000A00000097
:100450000100000082800000000000000380000016
:10046000010000008B800000010000000B000080F4
:10047000010000008A00008001000000810000806F
:1004800000000000810000800000000008000080E3
:1004900000000000830000000000000003800080D6
:1004A00001000000888000800000000088000080BB
:1004B0000100000000800000000000008280008039
:1004C000FF000000AFF30080AFF30080AFF30080C7
:1004D000AFF30080AFF30080AFF30080AFF3008094
:1004E000AFF30080AFF30080AFF30080AFF3008084
:1004F000AFF30080AFF30080AFF30080AFF3008074
:100500002DE9F05F86B00591036A816C4B40016F65
:100510004B40D0F898104B40D0F8C0104B40C76803
:10052000416B4F40C16D4F40D0F884104F40D0F820
:10053000AC104F4083EAF7760096466AC16C4E4095
:10054000416F4E40D0F89C104E40D0F8C4104E4041
:10055000D0F808E0016B9EEA010E816D9EEA010E63
:10056000D0F880109EEA010ED0F8A8109EEA010E85
:1005700096EA0E08CDF804800569816B4D40016E46
:100580004D40D0F888104D40D0F8B0104D4085EA6D
:10059000F679CDF808904469C16B4C40416E4C40EF
:1005A000D0F88C104C40D0F8B4104C40634003930A
:1005B0000368816A4B40016D4B40816F4B40D0F81E
:1005C000A0104B4083EAF47A4668C16A4E40416D00
:1005D0004E40C16F4E40D0F8A4104E4096EA050B35
:1005E000C469416C4C40C16E4C40D0F894104C40F2
:1005F000D0F8BC104C408EEAF47504958569016C06
:100600004D40816E4D40D0F890104D40D0F8B8105C
:100610004D4097EA050285EAF67C94EA030E456DA3
:10062000D0F88460D0F8B4708369846C95EA0805CA
:10063000574096EA0B0693EA090394EA0C045FEA32
:10064000B5755FEA76265FEA77075FEAB3435FEA4C
:10065000B45425EA04015940416526EA0501614088
:10066000C0F8841027EA06016940C0F8B41023EAF4
:1006700007017140816124EA030179408164D0F867
:10068000A4708368C46B856ED0F89C6097EA0807F5
:10069000544093EA0A0395EA090596EA0E065FEAD2
:1006A000F7575FEA74745FEA35555FEA367625EAF4
:1006B00004015940C0F8A41026EA05016140816098
:1006C00027EA06016940C16323EA07017140816698
:1006D00024EA03017940C0F89C10DDF80080846AA8
:1006E000856DD0F88C60D0F8B870436A94EA08043D
:1006F000564095EA0A0597EA090793EA0E035FEA6E
:10070000B4345FEAF5655FEA36665FEA37175FEA99
:10071000B34325EA04015940816226EA050161409C
:10072000816527EA06016940C0F88C1023EA0701B9
:100730007140C0F8B81024EA030179404162866F25
:10074000D0F8AC704369046C056F96EA0806534014
:1007500097EA0B0794EA090495EA0C055FEA363636
:100760005FEAF7775FEA73035FEA74145FEA75354F
:1007700025EA04015940816726EA05016140C0F875
:10078000AC1027EA06016940416123EA0701714084
:10079000016424EA030179400167DDF80C900368E5
:1007A000046B456ED0F89460D0F8C07093EA0803EB
:1007B000554094EA0A0496EA090697EA0C075FEAAC
:1007C000B4245FEAB5255FEA76565FEA776726EAE2
:1007D00005016140016327EA06016940416623EA99
:1007E00007017140C0F8941024EA03017940C0F871
:1007F000C0100599A5430C686B4063400360049AE0
:10080000056DD0F88060D0F8B070C369C46C95EA0B
:100810000805574096EA0A0693EA090394EA0E048B
:100820005FEAF5755FEAB6265FEAB7075FEAB343AA
:100830005FEAB45425EA04015940016526EA05013E
:100840006140C0F8801027EA06016940C0F8B01086
:1008500023EA07017140C16124EA03017940C164C0
:10086000D0F8A070C368846BC56ED0F8986097EA22
:100870000807544093EA0B0395EA090596EA0C062B
:100880005FEAF7575FEAF3735FEA74745FEAF5456E
:100890005FEA367625EA04015940C0F8A01026EA3E
:1008A00005016140C16027EA06016940816323EACE
:1008B00007017140C16624EA03017940C0F898102D
:1008C000DDF80480C46AC56DD0F88860D0F8BC70CB
:1008D000036A94EA0804564095EA0B0597EA09076B
:1008E00093EA0C035FEAB4345FEAF5655FEA766683
:1008F0005FEA37175FEAF34325EA04015940C16212
:1009000026EA05016140C16527EA06016940C0F891
:10091000881023EA07017140C0F8BC1024EA0301E3
:1009200079400162C66FD0F8A8700369446C456FC6
:1009300096EA0806534097EA0A0794EA090495EAFA
:100940000E055FEAF6265FEAF7775FEA73035FEA70
:1009500034145FEA353525EA04015940C16726EAB7
:1009600005016140C0F8A81027EA0601694001614D
:1009700023EA07017140416424EA03017940416799
:10098000DDF808904368446B056ED0F89060D0F8AD
:10099000C47093EA0803554094EA0B0496EA0906EA
:1009A00097EA0E075FEAB4245FEAF5255FEAB656D8
:1009B0005FEA776726EA05016140416327EA06019D
:1009C0006940016623EA07017140C0F8901024EAEB
:1009D00003017940C0F8C4100599A5434C686B40E9
:1009E00063404360D0F8C030816C4B40D0F8981021
:1009F0004B40416A4B40416F4B40476BD0F88010F1
:100A00004F4081684F40C16D4F40D0F8AC104F400F
:100A100083EAF7760096D0F8C460C16C4E40D0F8F7
:100A20009C104E40016A4E40016F4E40D0F830E0BD
:100A3000D0F884109EEA010EC1689EEA010E816D15
:100A40009EEA010ED0F8A8109EEA010E96EA0E0862
:100A5000CDF80480456ED0F8B4104D40816B4D4008
:100A6000D0F88C104D4001694D4085EAF679CDF8FB
:100A70000890046ED0F8B0104C40C16B4C40D0F8D8
:100A800088104C4041694C40634003930368416DBA
:100A90004B40D0F8A0104B40816A4B40C16F4B4097
:100AA00083EAF47A4668016D4E40D0F8A4104E40B7
:100AB000C16A4E40816F4E4096EA050BD0F89040D7
:100AC000C1694C40816E4C40D0F8BC104C40016C68
:100AD0004C408EEAF4750495D0F8945081694D40ED
:100AE000C16E4D40D0F8B8104D40416C4D4097EA72
:100AF000050285EAF67C94EA030ED0F8A450C66D90
:100B00004769D0F89430846C95EA0805574096EA16
:100B10000B0693EA090394EA0C045FEAB5755FEAF1
:100B200076265FEA77075FEAB3435FEAB45425EAC3
:100B300004015940C0F8A41026EA05016140C165CE
:100B400027EA06016940416123EA07017140C0F8C4
:100B5000941024EA030179408164876F036BD0F815
:100B6000B040C56E066A97EA0807544093EA0A0344
:100B700095EA090596EA0E065FEAF7575FEA74748C
:100B80005FEA35555FEA367625EA04015940816708
:100B900026EA05016140016327EA06016940C0F8C1
:100BA000B01023EA07017140C16624EA03017940CD
:100BB0000162DDF80080446DC568D0F88860476C3C
:100BC000D0F8C43094EA0804564095EA0A0597EA3A
:100BD000090793EA0E035FEAB4345FEAF5655FEA5A
:100BE00036665FEA37175FEAB34325EA04015940E6
:100BF000416526EA05016140C16027EA06016940B6
:100C0000C0F8881023EA07017140416424EA030117
:100C10007940C0F8C410866AD0F8AC70036E84695D
:100C2000D0F8985096EA0806534097EA0B0794EAE2
:100C3000090495EA0C055FEA36365FEAF7775FEA62
:100C400073035FEA74145FEA753525EA04015940BD
:100C5000816226EA05016140C0F8AC1027EA06016E
:100C60006940016623EA07017140816124EA0301BA
:100C70007940C0F89810DDF80C900368D0F88440F3
:100C8000C56BD0F8BC60476F93EA0803554094EAFF
:100C90000A0496EA090697EA0C075FEAB4245FEAB9
:100CA000B5255FEA76565FEA776726EA0501614077
:100CB000C0F8841027EA06016940C16323EA0701EE
:100CC0007140C0F8BC1024EA0301794041670599DE
:100CD000A5438C686B4063400360049AD0F8A05031
:100CE000866D0769D0F89030C46C95EA08055740C6
:100CF00096EA0A0693EA090394EA0E045FEAF57598
:100D00005FEAB6265FEAB7075FEAB3435FEAB45427
:100D100025EA04015940C0F8A01026EA0501614007
:100D2000816527EA06016940016123EA07017140F4
:100D3000C0F8901024EA03017940C164C76F436B87
:100D4000D0F8B440856E466A97EA0807544093EAA3
:100D50000B0395EA090596EA0C065FEAF7575FEA86
:100D6000F3735FEA74745FEAF5455FEA367625EA65
:100D700004015940C16726EA05016140416327EA41
:100D800006016940C0F8B41023EA0701714081668A
:100D900024EA030179404162DDF80480046D85682E
:100DA000D0F88C60076CD0F8C03094EA0804564044
:100DB00095EA0B0597EA090793EA0C035FEAB43456
:100DC0005FEAF5655FEA76665FEA37175FEAF34345
:100DD00025EA04015940016526EA05016140816068
:100DE00027EA06016940C0F88C1023EA0701714028
:100DF000016424EA03017940C0F8C010C66AD0F843
:100E0000A870436EC469D0F89C5096EA0806534017
:100E100097EA0A0794EA090495EA0E055FEAF626BE
:100E20005FEAF7775FEA73035FEA34145FEA353508
:100E300025EA04015940C16226EA05016140C0F873
:100E4000A81027EA06016940416623EA07017140BC
:100E5000C16124EA03017940C0F89C10DDF80890D4
:100E60004368D0F88040856BD0F8B860076F93EA8C
:100E70000803554094EA0B0496EA090697EA0E0720
:100E80005FEAB4245FEAF5255FEAB6565FEA776762
:100E900026EA05016140C0F8801027EA0601694092
:100EA000816323EA07017140C0F8B81024EA030106
:100EB000794001670599A543CC686B406340436066
:100EC000436F816C4B40416A4B40D0F8C4104B409B
:100ED000D0F89C104B40D0F88070816D4F40016B72
:100EE0004F4081684F40D0F8AC104F4083EAF7760E
:100EF0000096066FC16C4E40016A4E40D0F8C0109B
:100F00004E40D0F898104E40D0F884E0C16D9EEA73
:100F1000010E416B9EEA010EC1689EEA010ED0F8F7
:100F2000A8109EEA010E96EA0E08CDF80480C56B63
:100F300041694D40D0F8B4104D40D0F888104D4074
:100F4000416E4D4085EAF679CDF80890846B0169D1
:100F50004C40D0F8B0104C40D0F88C104C40016E92
:100F60004C40634003930368D0F8A4104B40C16F1A
:100F70004B40416D4B40C16A4B4083EAF47A46686E
:100F8000D0F8A0104E40816F4E40016D4E40816AF6
:100F90004E4096EA050BD0F8B840D0F890104C407F
:100FA000C16E4C40016C4C4081694C408EEAF47536
:100FB0000495D0F8BC50D0F894104D40816E4D404F
:100FC000416C4D40C1694D4097EA050285EAF67CC7
:100FD00094EA030E856F8668076ED0F8BC30846C87
:100FE00095EA0805574096EA0B0693EA090394EA46
:100FF0000C045FEAB5755FEA76265FEA77075FEA79
:10100000B3435FEAB45425EA04015940816726EAF4
:1010100005016140816027EA06016940016623EA13
:1010200007017140C0F8BC1024EA030179408164D3
:10103000876AD0F884300469856ED0F8C06097EA7A
:101040000807544093EA0A0395EA090596EA0E0652
:101050005FEAF7575FEA74745FEA35555FEA367600
:1010600025EA04015940816226EA05016140C0F881
:10107000841027EA06016940016123EA07017140F3
:10108000816624EA03017940C0F8C010DDF80080D1
:10109000D0F8A440456BD0F88C60C769036F94EA20
:1010A0000804564095EA0A0597EA090793EA0E03F1
:1010B0005FEAB4345FEAF5655FEA36665FEA3717E0
:1010C0005FEAB34325EA04015940C0F8A41026EAB8
:1010D00005016140416327EA06016940C0F88C10B0
:1010E00023EA07017140C16124EA030179400167E5
:1010F000466DD0F8AC70836BD0F89440456A96EAA0
:101100000806534097EA0B0794EA090495EA0C0590
:101110005FEA36365FEAF7775FEA73035FEA7414D3
:101120005FEA753525EA04015940416526EA050163
:101130006140C0F8AC1027EA06016940816323EAE8
:1011400007017140C0F8941024EA0301794041621C
:10115000DDF80C900368C46DD0F8B050066CD0F880
:101160009C7093EA0803554094EA0A0496EA09063B
:1011700097EA0C075FEAB4245FEAB5255FEA765682
:101180005FEA776726EA05016140C16527EA060143
:101190006940C0F8B01023EA07017140016424EAF5
:1011A00003017940C0F89C100599A5430C696B4078
:1011B00063400360049AC56FC668476ED0F8B830C4
:1011C000C46C95EA0805574096EA0A0693EA0903B3
:1011D00094EA0E045FEAF5755FEAB6265FEAB707A0
:1011E0005FEAB3435FEAB45425EA04015940C1679A
:1011F00026EA05016140C16027EA060169404166AF
:1012000023EA07017140C0F8B81024EA03017940CD
:10121000C164C76AD0F880304469C56ED0F8C46034
:1012200097EA0807544093EA0B0395EA090596EA02
:101230000C065FEAF7575FEAF3735FEA74745FEADC
:10124000F5455FEA367625EA04015940C16226EA8F
:1012500005016140C0F8801027EA0601694041613C
:1012600023EA07017140C16624EA03017940C0F80E
:10127000C410DDF80480D0F8A040056BD0F8886079
:101280008769436F94EA0804564095EA0B0597EA8C
:10129000090793EA0C035FEAB4345FEAF5655FEA95
:1012A00076665FEA37175FEAF34325EA040159409F
:1012B000C0F8A01026EA05016140016327EA060193
:1012C0006940C0F8881023EA07017140816124EA6F
:1012D000030179404167066DD0F8A870C36BD0F860
:1012E0009040056A96EA0806534097EA0A0794EA8E
:1012F000090495EA0E055FEAF6265FEAF7775FEAEA
:1013000073035FEA34145FEA353525EA0401594076
:10131000016526EA05016140C0F8A81027EA060128
:101320006940C16323EA07017140C0F8901024EAC4
:10133000030179400162DDF808904368846DD0F8BC
:10134000B450466CD0F8987093EA0803554094EA7C
:101350000B0496EA090697EA0E075FEAB4245FEAEF
:10136000F5255FEAB6565FEA776726EA0501614030
:10137000816527EA06016940C0F8B41023EA070135
:101380007140416424EA03017940C0F8981005993E
:10139000A5434C696B4063404360D0F89C30816C3E
:1013A0004B40D0F8C4104B40016F4B40016A4B409A
:1013B000876DC1684F40D0F884104F40016B4F409B
:1013C000D0F8AC104F4083EAF7760096D0F89860DA
:1013D000C16C4E40D0F8C0104E40416F4E40416A43
:1013E0004E40D0F85CE081689EEA010ED0F8801093
:1013F0009EEA010E416B9EEA010ED0F8A8109EEA0B
:10140000010E96EA0E08CDF80480D0F8B050016EB7
:101410004D4041694D40D0F88C104D40C16B4D405E
:1014200085EAF679CDF80890D0F8B440416E4C408A
:1014300001694C40D0F888104C40816B4C406340AF
:1014400003930368816F4B40C16A4B40D0F8A410EE
:101450004B40016D4B4083EAF47A4668C16F4E40C1
:10146000816A4E40D0F8A0104E40416D4E4096EA41
:10147000050B446CD0F8B8104C40816E4C4081692B
:101480004C40D0F894104C408EEAF4750495056CED
:10149000D0F8BC104D40C16E4D40C1694D40D0F8F0
:1014A00090104D4097EA050285EAF67C94EA030E17
:1014B000856A066B876B036C846C95EA0805574058
:1014C00096EA0B0693EA090394EA0C045FEAB57501
:1014D0005FEA76265FEA77075FEAB3435FEAB454D0
:1014E00025EA04015940816226EA05016140016351
:1014F00027EA06016940816323EA0701714001641C
:1015000024EA030179408164476DC36D446EC56E62
:10151000466F97EA0807544093EA0A0395EA0905DB
:1015200096EA0E065FEAF7575FEA74745FEA35558C
:101530005FEA367625EA04015940416526EA05014D
:101540006140C16527EA06016940416623EA070157
:101550007140C16624EA030179404167DDF80080EB
:10156000846FD0F88050D0F88860D0F89070D0F8B0
:10157000983094EA0804564095EA0A0597EA090764
:1015800093EA0E035FEAB4345FEAF5655FEA366614
:101590005FEA37175FEAB34325EA040159408167E0
:1015A00026EA05016140C0F8801027EA060169407B
:1015B000C0F8881023EA07017140C0F8901024EAAF
:1015C00003017940C0F89810D0F8A460D0F8AC704E
:1015D000D0F8B430D0F8BC40D0F8C45096EA080631
:1015E000534097EA0B0794EA090495EA0C055FEA71
:1015F00036365FEAF7775FEA73035FEA74145FEAEF
:10160000753525EA04015940C0F8A41026EA050101
:101610006140C0F8AC1027EA06016940C0F8B41078
:1016200023EA07017140C0F8BC1024EA03017940A5
:10163000C0F8C410DDF80C900368846805698669F9
:10164000076A93EA0803554094EA0A0496EA0906F1
:1016500097EA0C075FEAB4245FEAB5255FEA76569D
:101660005FEA776726EA05016140816027EA0601A3
:101670006940016123EA07017140816124EA0301A5
:10168000794001620599A5438C696B406340036012
:10169000049AC56A466BC76B436CC46C95EA08052F
:1016A000574096EA0A0693EA090394EA0E045FEAB1
:1016B000F5755FEAB6265FEAB7075FEAB3435FEA0C
:1016C000B45425EA04015940C16226EA050161408B
:1016D000416327EA06016940C16323EA07017140BB
:1016E000416424EA03017940C164076D836D046E8F
:1016F000856E066F97EA0807544093EA0B0395EA54
:10170000090596EA0C065FEAF7575FEAF3735FEAAA
:1017100074745FEAF5455FEA367625EA04015940BC
:10172000016526EA05016140816527EA06016940F5
:10173000016623EA07017140816624EA03017940CA
:101740000167DDF80480C46FD0F88450D0F88C6055
:10175000D0F89470D0F89C3094EA0804564095EA8A
:101760000B0597EA090793EA0C035FEAB4345FEAD2
:10177000F5655FEA76665FEA37175FEAF34325EAC5
:1017800004015940C16726EA05016140C0F8841090
:1017900027EA06016940C0F88C1023EA070171406E
:1017A000C0F8941024EA03017940C0F89C10D0F8E6
:1017B000A060D0F8A870D0F8B030D0F8B840D0F819
:1017C000C05096EA0806534097EA0A0794EA0904CB
:1017D00095EA0E055FEAF6265FEAF7775FEA73039C
:1017E0005FEA34145FEA353525EA04015940C0F850
:1017F000A01026EA05016140C0F8A81027EA0601FA
:101800006940C0F8B01023EA07017140C0F8B81071
:1018100024EA03017940C0F8C010DDF8089043685D
:10182000C4684569C669476A93EA0803554094EA63
:101830000B0496EA090697EA0E075FEAB4245FEA0A
:10184000F5255FEAB6565FEA776726EA050161404B
:10185000C16027EA06016940416123EA070171403E
:10186000C16124EA0301794041620599A543CC692D
:101870006B40634051F8204F0591FF2C43607EF48C
:1018800043AE06B0BDE8F09F70B50D4E0D4D761B12
:10189000B61006D00024013455F8043B9847A64200
:1018A000F9D1094E094D761B01F06EFAB61006D03B
:1018B0000024013455F8043B9847A642F9D170BD85
:1018C000B42D0008B42D0008B82D0008B42D000870
:1018D00010B5084902460346103053F8044B41F84E
:1018E000044B8342F9D11021722000F0D3FC002078
:1018F00010BD00BFC401002008B5084B084A1B6892
:101900001370190A5170190C91701B0E042172206A
:10191000D37000F0BFFC002008BD00BF0C05002004
:10192000EC050020154B1649164A30B5C3E90012E4
:10193000154A9A60A2F16462A2F5E332A2F5DF7261
:10194000DA6003F1100100F1200482784578120476
:1019500042EA052205782A43C578043042EA056246
:10196000844241F8042BF0D10022C3E90C22C3E9E0
:101970000E224022C3F8802030BD00BF2C00002082
:10198000657870616E642033322D6279114A124994
:10199000D2F8843070B5044601EB0311013804F12C
:1019A0000F0510F8016F01F8016BA842F9D101335E
:1019B00003F00103194648BF5942C2F8841013B915
:1019C0000548FFF7AFFF22461021722000F062FCAD
:1019D000002070BD2C000020EC0400202DE9F74F02
:1019E000002501F1080CAE46002300EB05099846DE
:1019F0001A4619F801ABA3F12004C3F120070AFA33
:101A000004F42AFA07F70AFA03F63C43083346EAD5
:101A100008061443402BB0462246EAD1CDE900EE39
:101A20000022C2F12008A2F1200726FA02F304FAEC
:101A300008F843EA080324FA07F712F0010F43EA13
:101A400007034FEA221718BF04370DF1080847446F
:101A500003F00103C2F3420803FA08F317F8088CF5
:101A6000013243EA0803402A07F8083CD9D16A4604
:101A70004B1912F8014B03F8014B9C45F9D108357D
:101A8000C82D0CF1080CAFD103B0BDE8F08F2DE9E3
:101A9000F74FCDE900010025009B002403EB050C66
:101AA000A146A0461CF801AB9CF803B021460026D5
:101AB0004BFA06F000F001004B1CA1F11F07C1F129
:101AC0001F0200FA07F720FA02F298404AFA06F3DA
:101AD00003F001033A43A1F1200EC1F1200703FAFC
:101AE0000EFE23FA07F74EEA07078B40034317431E
:101AF000013643EA090347EA0807082E9946B84623
:101B000001F10201D4D11034402CCBD1019A5619E5
:101B10000022C2F12004A2F1200023FA02F107FA08
:101B200004F4214327FA00F008320143402A06F862
:101B3000011BEED10835C82DAED103B0BDE8F08F42
:101B4000F7B5144D1449144E04461448FFF79FFF8F
:101B500000222946501900239F180133F75D00F831
:101B6000017B082BF8D10832C82AF3D122786846C5
:101B700001EBC2011C46024611F8013B00F8013B93
:101B8000013CF9D108216D2000F084FB204603B010
:101B9000F0BD00BFC60100205C030020240400202B
:101BA00030B50E4C002215462346A5540132C82AF2
:101BB000FBD100228A420ADB5A5C82F006025A54A8
:101BC00093F8472082F0800283F8472030BD9C5C68
:101BD000855C6C409C540132ECE700BF5C03002044
:101BE0002DE9F041DFF87480174C184F0546FFF7D8
:101BF000D7FF41461648FFF7F1FE2268A168136837
:101C000043F0807313606268002616600B6843F02F
:101C100001030B6013683B6000F0F4F84046FEF7E8
:101C20006FFB00F0F6F863680A4A1B6813603A68B5
:101C30009B1A094A1021136072202A4600F02AFBE1
:101C40003046BDE8F08100BF00000020C001002048
:101C50005C030020100500200C0500202404002057
:101C600008B500F02DF800F06BF800F0A7F800F0D0
:101C700097FA0E4A1021702000F08EFA0C4A1021BB
:101C8000722000F089FA0B4A1021732000F084FAC8
:101C9000094A10216B2000F07FFA084A01216320D5
:101CA00000F07AFA00F094FAFCE700BFE11B0008AC
:101CB000411B00088D190008D1180008F918000808
:101CC00070B596B0002403264FF4A0230CA801257C
:101CD000CDE90C631094149400F0E8FA0F23214628
:101CE00002A8CDE90235CDE90444069400F046FD92
:101CF000114B5A6942F400225A615B69CDE90946E9
:101D000003F400230D4C0193019B07A94FF4C0433A
:101D10002046CDE9073500F0ADF82A4620464FF4BD
:101D2000005100F06DF92A464FF48041204600F042
:101D300067F916B070BD00BF0010024000080048EF
:101D400010B54FF4C06288B00223CDE9032301210E
:101D50000323CDE90513164C07230793636943F466
:101D600000336361636903F40033019303A94FF007
:101D70009040019B00F07EF80E48DFF83CC04FF425
:101D80001643C0E900C30023C0E902330361836145
:101D90000C234361A36943F48043A361A36903F463
:101DA00080430293029B00F0DDFE08B010BD00BF2F
:101DB00000100240B806002000380140104B30B53A
:101DC0005A6942F400325A615B6987B003F4003308
:101DD0000093009B4FF480540123CDE9014300257B
:101DE000032301A94FF09040CDE9035300F042F8DE
:101DF0002A4621464FF0904000F002F907B030BD6E
:101E00000010024001224FF480514FF0904000F04A
:101E1000F7B800224FF480514FF0904000F0F0B836
:101E200037B50A4D0A4C41F2883301220DF1070102
:101E3000284600F018FF18B99DF8070003B030BD20
:101E4000236A43F008032362EDE700BFB8060020D1
:101E50000038014007B541F288338DF807000122B0
:101E60000DF10701024800F0A8FE03B05DF804FB85
:101E7000B80600202DE9F74FDFF880915D4C002374
:101E80000A6832FA03F502D103B0BDE8F08F0125EC
:101E900005FA03FE1EEA020200F0A1804E68032745
:101EA00006F003054FEA430807FA08FC6F1E012FEE
:101EB0006FEA0C0C34D8876807EA0C0ACF6807FA77
:101EC00008F747EA0A078760476827EA0E0EC6F355
:101ED00000179F4047EA0E074760C76807EA0C0EE5
:101EE0008F6807FA08F747EA0E07022DC76019D175
:101EF0004FEAD30A00EB8A0A03F0070BDAF82070E6
:101F00004FEA8B0B4FF00F0E0EFA0BFE27EA0E0E68
:101F10000F6907FA0BF747EA0E07CAF8207001E0CD
:101F2000032DDAD1076805FA08F507EA0C0C45EA33
:101F30000C0516F4403F056051D0D9F8185045F013
:101F40000105C9F81850D9F8185023F0030707F114
:101F5000804705F0010507F58037019503F0030E72
:101F6000019DBD684FEA8E0E4FF00F0C0CFA0EFC6F
:101F7000B0F1904F25EA0C0C33D01F4DA84232D05F
:101F800005F58065A84230D005F58065A8422ED0C1
:101F900005F58065A8420CBF0425052505FA0EF558
:101FA00045EA0C05BD60A568D74316F4801F0CBF39
:101FB0003D401543A560E56816F4001F0CBF3D4089
:101FC0001543E560656816F4003F0CBF3D401543BE
:101FD00065602568F60354BF3D4015432560013315
:101FE0004EE70025DAE70125D8E70225D6E70325E5
:101FF000D4E700BF00040140000400480010024084
:102000000AB181617047816270477047044A516923
:10201000014208B502D05061FFF7F7FF08BD00BFCD
:1020200000040140FEE7FEE7FEE7FEE7FEE770473B
:10203000704770474FF40060FFF7E8BF012070471A
:10204000F8B514460E46FFF705FF0C4F651EC4F1A8
:10205000010463199E4204DCBDE8F8400A20FFF742
:10206000F9BE15F8013F1B09F85CFFF7F3FE2B786A
:1020700003F00F03F85CFFF7EDFEEAE7A02D000880
:1020800007B5074B0DF107021B688DF807300121DA
:102090007220FFF7D5FF002003B05DF804FB00BFFE
:1020A000B400002070B5124801688CB0CDB2002495
:1020B000E3B2AB4204F1010409DB01EB41016A46E2
:1020C000C9B27220FFF7BCFF00200CB070BD03EB5B
:1020D00043020CAE00EB031332441E7902F8306C5D
:1020E0009E681B7C02F82F6C02F82E3CE0E700BFD4
:1020F000B4000020F0B500234F1C834201DB002018
:1021000020E017F8135011F81340A5F13006F6B28D
:10211000092E0BD8D654A4F13005EEB2092E14D8EE
:10212000D45C44EA0514D4540133E6E7A5F1410632
:10213000052E02D8373DD554EDE7A5F16106052EF1
:1021400001D90120F0BD573DF5E7A4F14105052D6A
:1021500002D8A4F13705E3E7A4F16105052DF0D815
:10216000D55C573C45EA0414DDE7000070B5094E24
:1021700034680F2C0BDCFF2909D806EB0415C5E9E0
:102180000212013428712B743460002070BD0120CC
:10219000FCE700BFB40000200023FFF7E7BF00000A
:1021A00008B5084A00217620FFF7F6FF064A00210D
:1021B0007720FFF7F1FFBDE80840044A00217920AD
:1021C000FFF7EABF3D200008A52000088120000895
:1021D0002DE9F0412E4CADF5427DFFF721FE22683E
:1021E0000023211D9A4204DC07D10DF5427DBDE894
:1021F000F0811D016D5C85423DD104EB03151E018C
:102200002B7CDB0714D500238DF80830FFF708FE80
:102210008DF80801FFF704FE02AA8DF8090142A912
:102220000120FFF767FF0028DFD19DF80830AB6081
:102230000025A7190DF58478BB68B5EB430F1CD3B7
:10224000FFF7EEFD0A2801D00D28CED1344402AAB2
:10225000A56842A92846FFF74DFF0028C5D1E9B27D
:10226000E36802A8984701AA8DF8040001217A20AA
:10227000FFF7E6FEB9E70133B4E7FFF7D1FD0A281F
:10228000B3D00D28B1D005F808000135D4E700BF60
:10229000B40000200AB1FFF7D3BE7047024B1868A4
:1022A000421C1A60704700BFB801002003682DE986
:1022B000F743D907044611D423689A0700F18680B2
:1022C00023681E0700F1F48023685D0700F13B815D
:1022D000E269002A40F0CE81002021E0B7494B6836
:1022E00003F00C03042B07D04B6803F00C03082BFE
:1022F00019D14B68DB0316D54FF4003393FAA3F2E0
:10230000096893FAA3F3B3FA83F303F01F030122DE
:1023100002FA03F30B42CFD06368002BCCD101202B
:1023200003B0BDE8F0836268B2F5803F24D10B684A
:1023300043F480330B60CB6AA06823F00F030343A0
:10234000CB624AB3FFF7AAFF4FF4003605460127D8
:1023500096FAA6F30A6896FAA6F3B3FA83F303F0A3
:102360001F0307FA03F31342A6D1FFF797FF431B9E
:10237000642BEDD90320D3E70B6832B923F4803303
:102380000B600B6823F48023D4E7B2F5A02FF5D1BE
:1023900043F480230B60CAE7FFF780FF4FF4003659
:1023A0000546012796FAA6F30A6896FAA6F3B3FA49
:1023B00083F303F01F0307FA03F313423FF47CAFE8
:1023C000FFF76CFF431B642BECD9D3E77B494B68C9
:1023D00013F00C0F07D04B6803F00C03082B21D12E
:1023E0004B68DF031ED4022393FAA3F2086893FA22
:1023F000A3F3B3FA83F303F01F03012202FA03F3FA
:10240000034202D02369934289D10868F82393FAE2
:10241000A3F3B3FA83F26369934020F0F802134305
:102420000B604DE72269012502B395FAA5F3B3FAD3
:1024300083F303F1845303F584139B0002271D608B
:10244000FFF72CFF064697FAA7F30A6897FAA7F357
:10245000B3FA83F303F01F0305FA03F31342D4D155
:10246000FFF71CFF831B022BEDD983E795FAA5F339
:10247000B3FA83F303F1845303F584139B0002271B
:102480001A60FFF70BFF064697FAA7F30A6897FA58
:10249000A7F3B3FA83F303F01F0305FA03F3134220
:1024A0003FF40EAFFFF7FAFE831B022BECD961E776
:1024B000A269424D4248012112B391FAA1F3B3FA45
:1024C00083F303449B0002261960FFF7E7FE0746EB
:1024D00096FAA6F396FAA6F396FAA6F36A6A96FA1D
:1024E000A6F3B3FA83F303F01F0301FA03F31342D5
:1024F0007FF4EAAEFFF7D2FEC31B022BE8D939E71F
:1025000091FAA1F3B3FA83F303449B0002261A6005
:10251000FFF7C4FE074696FAA6F396FAA6F396FAD4
:10252000A6F36A6A96FAA6F3B3FA83F303F01F03DD
:1025300001FA03F313423FF4C7AEFFF7AFFEC31B2C
:10254000022BE8D916E71D49CB69D80034D4CB69F2
:1025500043F08053CB61CB6903F080530193019B1F
:102560000125184E3368DA052ED5E368012B3BD1DF
:102570000B6A43F001030B62FFF790FE0226074649
:10258000B1464FF0010896FAA6F396FAA6F3002B8F
:1025900068D00A6A99FAA9F3B3FA83F303F01F0328
:1025A00008FA03F3134255D0002D3FF491AECB69E6
:1025B00023F08053CB618BE60025D2E70010024068
:1025C0002081901000700040336843F480733360C2
:1025D000FFF764FE07463368DB05C6D4FFF75EFEEF
:1025E000C01B6428F7D9C5E633BB0B6A23F001038F
:1025F0000B620B6A23F004030B62FFF74FFE022607
:102600000746B1464FF0010896FAA6F396FAA6F3EC
:1026100063B30A6A99FAA9F3B3FA83F303F01F03C9
:1026200008FA03F31342BFD0FFF738FE41F28833B4
:10263000C01B9842E8D99DE6052B0B6A03D143F0F5
:1026400004030B6294E723F001030B620B6A23F08F
:10265000040390E7FFF722FE41F28833C01B984243
:1026600091D987E696FAA6F34A6A93E796FAA6F313
:102670004A6ACFE740494B6803F00C03082B3FF44C
:102680004EAE022A4FF0807351D193FAA3F3B3FAFE
:1026900083F303F1845303F584139B0000221A6033
:1026A000FFF7FCFD4FF000770646012597FAA7F3E8
:1026B0000A6897FAA7F3B3FA83F303F01F0305FA46
:1026C00003F313422DD1D4E908034A68034322F4EB
:1026D000741213434B604FF0807393FAA3F3B3FA71
:1026E00083F303F1845303F584139B0001261D60DB
:1026F000FFF7D4FD4FF00075044695FAA5F30A687C
:1027000095FAA5F3B3FA83F303F01F0306FA03F374
:1027100013427FF4E1ADFFF7C1FD001B0228ECD9A5
:1027200028E6FFF7BBFD831B022BBFD922E693FAF5
:10273000A3F3B3FA83F303F1845303F584139B00EB
:1027400000221A60FFF7AAFD4FF00075044601262B
:1027500095FAA5F30A6895FAA5F3B3FA83F303F0A3
:102760001F0306FA03F313423FF4B6ADFFF796FDDD
:10277000001B0228ECD9FDE500100240504AF8B5D4
:10278000136803F007038B4204461BD322689007AB
:1027900024D4D2072AD44A4A136803F007038B4291
:1027A0007AD82068430700F1828010F0080014D026
:1027B000444A2169536823F4605343EAC1035360D8
:1027C00000200AE0136823F007030B43136013682B
:1027D00003F007038B42D9D00120F8BD3948A56822
:1027E000436823F0F0032B434360D2E76268354D22
:1027F000012A27D14FF4003393FAA3F0286893FA03
:10280000A3F3B3FA83F303F01F0302FA03F30342C3
:10281000E2D06B6823F003031A436A60FFF73EFDC2
:102820006368012B064641F288371ED16B6803F0BE
:102830000C03042BAFD0FFF731FD801BB842F5D954
:102840000320CAE7022A0CBF4FF00073022393FA59
:10285000A3F02E6893FAA3F3B3FA83F303F01F03F4
:10286000012000FA03F33342D2E7022B0FD16B6849
:1028700003F00C03082B8ED0FFF710FD801BB8422D
:10288000F5D9DDE7FFF70AFD801BB842D8D86B68A1
:1028900013F00C0FF6D17EE7136823F007030B4308
:1028A0001360136803F007038B4295D179E705495C
:1028B000E3684A6822F4E0621A434A6075E700BFA1
:1028C000002002400010024002688168C36930B5F0
:1028D000056914682943456924F41644294324F002
:1028E0000C041943214311605168C468056A21F43E
:1028F0004051214351609468816924F43064294334
:102900002143916062498A4216D101F55841096B11
:1029100001F003010139022900F2B2805D4CB3F5E8
:10292000004F615C77D1082972D8DFE801F0ACACC8
:102930002471AC717171A40057498A422CD101F500
:10294000E631096B01F44031B1F5003F00F09080B1
:102950000BD8002900F09480B1F5803F00F0908002
:10296000B3F5004F54D0012015E0B1F5403FF7D149
:10297000B3F5004F66D141684B0803F1F47303F5DA
:102980009043B3FBF1F300209BB223F00F01C3F39C
:1029900042030B43D36030BD40498A4210D101F558
:1029A000E431096B01F44021B1F5002F60D004D867
:1029B000002965D0B1F5802FD0E7B1F5402FD6E7DB
:1029C00037498A4210D101F5E231096B01F4401117
:1029D000B1F5001F4CD004D8002951D0B1F5801FAB
:1029E000BCE7B1F5401FC2E72E498A42B8D101F5D4
:1029F000E031096B01F44001B1F5000F38D004D883
:102A000000293DD0B1F5800FA8E7B1F5400FAEE742
:102A100001200023B9E70829A5D801A353F821F024
:102A20005D2A00085D2A0008452A00086729000879
:102A30005D2A00086729000867290008672900083F
:102A4000672A000841684B0803F5740303F5105327
:102A5000B3FBF1F39BB2D36000209CE741684B08C5
:102A600003F5E103F4E741684B0803F50043EFE7A2
:102A7000B3F5004FF7D141684B0803F5803380E789
:102A8000B3F5004FEAD141684B0803F5610378E7DD
:102A900000380140B02D00080044004000480040CC
:102AA000004C004000500040F8B5069F0446154613
:102AB0001E462268D36931EA03030CBF01230023B9
:102AC000AB4201D0002014E07B1CF3D097B92368FF
:102AD0001A6822F4D0721A609A6822F001029A6091
:102AE000202384F8693084F86A30002384F8683041
:102AF0000320F8BDFFF7D2FB801BB842D9D9E6E727
:102B000037B504460021C166FFF7C8FB23681B6880
:102B10001A07054617D423681B685B070AD56FF0B0
:102B20007E43009300222B464FF480012046FFF79E
:102B3000BBFFA0B92023002084F8693084F8680026
:102B400084F86A300CE06FF07E4300930A46034637
:102B50004FF400112046FFF7A7FF0028DBD0032029
:102B600003B030BD10B5044628B390F8693003F0C7
:102B7000FF020BB980F868202268242384F86930AA
:102B8000136823F0010313602046FFF79DFE012820
:102B900011D023685A6822F490425A609A6822F051
:102BA0002A029A601A6842F0010220461A60BDE8C3
:102BB0001040FFF7A5BF012010BDF7B51E4690F8E5
:102BC0006930202B0D46044611464AD1002D46D0CF
:102BD000002A44D090F86830012B42D0012380F8BD
:102BE00068300023C366212380F86930FFF756FB65
:102BF0000746A4F85010A4F85210B4F8522092B22C
:102C000062B900963B4640212046FFF74DFF98B938
:102C1000202384F8693084F868000EE0B4F852206C
:102C20000096013A92B2A4F852203B46002280213D
:102C30002046FFF739FF10B1032003B0F0BDA368B1
:102C40002268B3F5805F07D123692BB935F8023BC1
:102C5000C3F308031385D0E715F8013BFAE7012019
:102C6000EBE70220E9E72DE9F3411E4690F86A30D0
:102C7000202B0D46044611465CD1002D58D0002A69
:102C800056D090F86830012B54D0012380F868307A
:102C900003684FF0FF321A620023C366222380F8D4
:102CA0006A30FFF7FBFAA368A4F85810B3F5805F09
:102CB0008046A4F85A1015D123698BB940F2FF134E
:102CC000A4F85C30B4F85C70B4F85A0080B280B9F3
:102CD000202384F86A3084F8680002B0BDE8F081EF
:102CE000FF23EDE7002BEDD12369002BF8D07F23E4
:102CF000E6E7B4F85A200096013A92B2A4F85A20B6
:102D00004346002220212046FFF7CEFEA0B9A2684C
:102D10002368B2F5805F06D1226922B99B8C3B40C3
:102D200025F8023BD0E79B8C3B4005F8013BCBE705
:102D30000120D2E70220D0E70320CEE7002103E004
:102D40000B4B5B58435004310A480B4B42189A42D4
:102D5000F6D30A4A02E0002313600432084B9A4279
:102D6000F9D3AFF30080FEF78FFDFEF779FFFEE7A2
:102D7000BC2D0008000000201000002010000020E2
:102D800028070020FEE70000F8B500BFF8BC08BC2B
:102D90009E467047F8B500BFF8BC08BC9E46704719
:102DA0003031323334353637383941424344454681
:042DB0000408020011
:042DB40069020008A8
:042DB80041020008CC
:102DBC00FCED00E0041000E0001000E03200000028
:0400000508002D3D85
:00000001FF
